:100000000C94920F0C94AF0F0C94AF0F0C945134CE
:100010000C94AF0F0C94AF0F0C94AF0F0C94AF0F68
:100020000C94AF0F0C94AF0F0C9405310C94ED3180
:100030000C94511B0C94AF0F0C94AF0F0C94AF0F9A
:100040000C94AF0F0C94AF0F0C94AF0F0C94AF0F38
:100050000C94AF0F0C94E1300C94AF0F0C94AF0FD5
:100060000C94AF0F0C94AF0F0C94AF0F0C94AF0F18
:100070000C94AF0F0C94AF0F0C94AF0F0C94AF0F08
:100080000C94AF0F0C94AF0F0C94AF0F0C94AF0FF8
:100090000C94AF0F0C94AF0F0C94AF0F0C94AF0FE8
:1000A0000C94AF0F0C94AF0F0C94AF0F0501090225
:1000B000A10185020901A1000509190129081500FE
:1000C0002501950875018102050109300931158165
:1000D000257F95027508810609381581257F9501D0
:1000E00075088106050C0A38021581257F95017572
:1000F000088106C0C005010980A101850319012AF4
:10010000B700150126B700950175108100C0050CD8
:100110000901A101850419012AA002150126A002E6
:10012000950175108100C005010906A1018506052C
:100130000719E029E71500250195087501810205D9
:1001400007190029EF1500250195F07501810205B9
:10015000081901290595057501910295017503910D
:1001600001C00660FF0961A1010962150026FF00B8
:100170009520750881020963150026FF00952075FA
:10018000089102C005010906A101050719E029E748
:1001900015002501950875018102950175088101F9
:1001A0000507190029FF150026FF0095067508812F
:1001B000000508190129051500250195057501910E
:1001C00002950175039101C009025B00030100A0C3
:1001D000FA090400000103010100092111010001D5
:1001E00022440007058103080001090401000203FD
:1001F00000000009211101000122220007058203ED
:100200002000010705030320000109040200010387
:1002100000000009211101000122B6000705840336
:10022000200001120100020000000832FC870201D8
:1002300000010200010C0353006F0066006C0065B2
:100240000000001A034A006F007300650066004159
:1002500000640061006D00630069006B0000000431
:1002600003090435001E001F002000210022002980
:100270000014001A000800150017002B00040016D7
:1002800000070009000A00E1001D001B000600191C
:100290000005002921E300777C2A002C00A8004CEF
:1002A00000270026002500240023002A0013001246
:1002B000000C0018001C00340033000F000E000D6D
:1002C000000B00E500380037003600100011002850
:1002D00000E200787C4C002C00AE003A003B003C71
:1002E000003D003E003F0035001E001F00200021A1
:1002F00000220001001E021F022002210222020130
:10030000002E002D002E022F0230020100010001FC
:100310000001000100407E450044004300420041CE
:1003200000400001002700260025002400230031A2
:100330000227022602250224022302010031003393
:1003400002330030002F0001000100010001000114
:100350000001000100010001000100010001000195
:1003600000490046006500000000000100E200E0D6
:1003700000E100E300390001001D011B0106011925
:100380000100000100010001000100010001000165
:1003900000010001000100010001002A0000004DE1
:1003A0000052004A004B0001004C004F0051005029
:1003B000004E0001000000000000000000000001ED
:1003C0000001000100010001000100000000000028
:1003D00000000000000000007C00000000000000A1
:1003E000000000000000001D7000000000407E00C2
:1003F00000000000000000000000000100010001FA
:1004000000010001000000000000000000000000EA
:1004100000000000000000000000000000000000DC
:10042000000000A900A800AA00000000000000AB26
:1004300000AE00AC0000000100010001000100015D
:1004400000000029001E001F002000210022002BB8
:100450000014001A000800150017003500040016EB
:1004600000070009000A00E1001D001B000600193A
:10047000000500E000E20001002C002C00A80001B3
:100480000001000100010001000100010001000164
:100490000001000100010001000100010001000154
:1004A0000001000100010001000100010001000144
:1004B00000010001000100010001002000530020A4
:1004C000200A0020004E00200043002D00470000BD
:1004D0000A002D0041002D0043002D005300003F75
:1004E0003F3F3F3F0047414D45210041444A53545F
:1004F000005241495345004C4F5745520051575205
:100500005459002D2D2D2D2D00414C494100000046
:10051000000000000000000000000000FFFFFFFFDF
:10052000FE0137B7370000000000000000000000A7
:1005300000000080E0F8FDFBFBFBE7C7B76F6F60D2
:100540005F5F1F3F7FFFFEFF1FE7FBFCFFFEFCFD21
:10055000FFFCC6913D303000009F637FBFBF3F3F2F
:10056000DFDE805E1D8DDBD3D7CFCFDFDFDFBFBF08
:10057000BFFFFE00F9C71FFFFFFFFFFFF8C000C06D
:10058000C0E0F0F0F80000000000000000000000F3
:10059000000000000000000000000000C0C1410198
:1005A0000100000380808080808000004040405037
:1005B000585E1F1F0F07030303030303000000001F
:1005C0000000000078FD85FCFFFFDFFFFFFFFFFF5D
:1005D000FFFFFFFFFFFFFFFEFEFF00F3F3FBFE3C0C
:1005E00008C1C1881E3FFFFFFFFFFFFFFFFFFFFFA6
:1005F000FFFFFF70FFFFFE01FFFFFFFFFFFF000394
:1006000003010101010000000000000000000000E3
:1006100000000000000000000000000000000000DA
:100620001010181000000000000000000000000181
:1006300003070F1F7EFCFCF8F8F8F87C3C40607064
:10064000B030D0C0E0F0FDFCF3CF3FFFFFFFFFFF75
:10065000FFFF7F3FDF9F1F0101C338E1DDDDDCDCF1
:1006600003BFBFBFBF3E3CBFBFBF9FDFDFDFDFEFCA
:10067000EFFFFF009F6FE7081FFFFFFFFF3F007EB8
:10068000FEFCFCF8F8000000000000000000000084
:100690000000000000000000000000008EE0F8F8FC
:1006A000F8F8F8F8F8F00000000000000000000082
:1006B0000000008080C0E1DBDBFDFDFEFEFFFFFFF0
:1006C00007FCFFFFFFFFFBE3C72FEFCCC1538337CE
:1006D000EDC1CCD9D787A32200BFBF9F9FAFAFB7D3
:1006E00080BBBDBDBEBFBFBF9FDFFFFFFFFFFFFFE2
:1006F000FFFFF3F0FCFEFEFE7F3F1F07010000003E
:10070000010307070F0000000000000000000000C8
:10071000000000000000000000000000FFFFFFF0EC
:1007200007B7B70200000000000000000000000052
:100730000080C0F0F8FDFDFFFBF3C717377F202FC7
:100740001F1F1F3F7FFF7F8FF3FCFFFFFFFFFFFF98
:10075000FEF1CEDF8C8C8000EF0E0F6FF7E7C71332
:100760003B601B83E1F9FDFCFCFDF9FBFBFBFBF3AC
:10077000FFFFF00FFFF8C33FFFFFFFFFFFFC021F6B
:100780000F0F0F0F07000000000000000000000026
:1007900000000000000000000000000061200000D8
:1007A0000003818080800000404040404040585C11
:1007B0005E1F0F070303010101010100000000009B
:1007C00000000038FCC13CFFFFEFFFFFFFFFFFFF11
:1007D000FFFFFFFFFFFFFF7FFFF8063E3EBF1F87C3
:1007E000E0F8F8F1E3C79FFFFFFFFFFFFFFFFFFF08
:1007F000FFFFFF07FFFFFF00FFFFFFFFFFFFF80006
:10080000F0E0E0E0E0000000000000000000000078
:1008100000000000000000000000000000000010C8
:100820001818000000000000000000000000010394
:10083000070F1F7FFEFCFCF8FCFC7C1C4060B0B086
:1008400010D0E0E0F0FDFCFCF3CFBF7FFFFFFFFF27
:10085000FF7FFF1FEFE78780003086F9FBFBF7F78C
:1008600080777737B7D7E7E7F7F7F3FBFBFBF9FDBF
:10087000FDFFFF003B81ECE8E1F9FFFF7F1F000077
:1008800003070F0F1F000000000000000000000021
:10089000000000000000000000000000F0F8F8F880
:1008A000F8F8F8F8700000000000000000000000F8
:1008B00000000080C0E1DBDBFDFDFEFEFFFFFF7FEF
:1008C000E0FFFFFFFFFFFDF1E39737F661A9C1CD20
:1008D000BA70F3E4E1E3E1E18000EFEFE7E3EBED91
:1008E000ECE0EFE7F7F7F7F7F7F3FBFFFFFFFFFFAA
:1008F000FFFFFFFEFF7F7F3F1FCFC301000000000F
:1009000000000000000000000000000000000000E7
:10091000000000000000000000000000FFFFFFFFDB
:10092000FFFE00DDDD5D00000000000000000000B3
:10093000000000000183C3EDEDDEDF1F3FBF7F7FBE
:1009400000FFFFFFFFFFF9F8FD7E9EEEF0F8ECECF4
:10095000FEE4309EEF8F870700FF1FFFFFFF7E7EC4
:100960007D78037377672F5F1E3E3E7F7F7FFFFF9B
:10097000FFFFFF03E78F3FFFFFFFFFFCF0C020F00A
:10098000F8FCFFFF7F0000000000000000000000F6
:10099000000000000000000000000000838383834B
:1009A0000303000E060000000000000000000040ED
:1009B0006070783C3F1F0F0F070F0F0F1E010303DE
:1009C0000202000101C74F8FF1FEFFFFFFFFFFFF93
:1009D000FFFFFEFCFBF9F1F1E0FD1CC1EEEEFEF8BD
:1009E0007103840331FCFEFFFFFFFFFFFFFFFEFEEC
:1009F000FEFFFFC0FFFFFC01FFFFFFFFFFFFF8034B
:100A000003010100000000000000000000000000E1
:100A10000000000000000000000000000301004092
:100A200040606000010101010101010101010105B6
:100A30000D1D7CFCFCF8F0E0E0E0E0E09000808040
:100A400000000000031FDCC39F7FFCFFFFFFFFFFD0
:100A5000FFFFFFFFFFFFFFFF0FFF18833777737163
:100A6000781E7FFFFEF8F1F3FFFFFFFF7F7F7F7FA0
:100A70003FFFFF03FF7F3F017EFFFFFFFFFF7F0080
:100A80003E3E7E7CFC0000000000000000000000F4
:100A9000000000000000000000000000C0F0F0F0C6
:100AA000F0E0E0E0E00000000000000000000000D6
:100AB0000000000003075FDFEFEFF7F1F2FBFBFB45
:100AC00081FDFEFEFEFFFFCF1FBEB9770F1F0F5F38
:100AD0009F0F3F43193C30100000F8FFFF7F7FBF9E
:100AE0009F00EEE6F6FAF8FCFEFEFEFEFEFFFFFFBC
:100AF000FFFFFF80CEF0FBFAF8FEFF3F1F03000070
:100B000000000000000000000000000000000000E5
:100B1000000000000000000000000000FFFFFFFFD9
:100B2000FFFC01BDBB3B0100000000000000000015
:100B300000000101030787D7BBBBBF7F7FFFFFFF1B
:100B400000FFFFFFFFFFCFE3E9F6F77383DA4169A8
:100B500076B707E7737B7B7B0101FAFBF3F7E7E7E7
:100B6000D783177767EFEFEFEFCFDFFFFFFFFFFFD1
:100B7000FFFFFF7FFFFEFEFCFBF3C18000000000D3
:100B800000000080C0000000000000000000000025
:100B900000000000000000000000000003870707BD
:100BA0000707001D05000000000000000000008095
:100BB000C0E0F0FC7E3F3F1F1F1F3F3C08060E0DAC
:100BC0000C0B0307071F7F1FE7F9FEFFFFFFFFFF67
:100BD000FFFFF3E0DE8E880800CC00CFEFEFC70FF9
:100BE0002F6780370686E5E9E3E7E7EFEFDFDF9F72
:100BF000BFFFFF00FCE30FFFFFFFFFFFFCE010F86B
:100C0000FCFE7F7F7F00000000000000000000006D
:100C1000000000000000000000000000030101804F
:100C2000C0E0000101000002020202020202021AF8
:100C30003AF8F8F0F0E0C08080C0C040000000004A
:100C40000000000C3E7F007FFFF7FFFFFFFFFFFF6C
:100C5000FFFFFFFFFFFFFF7FFFFF003E7E7E1F8F36
:100C6000C2F0F0C28F1F7FFFFFFFFFFFFFFFFFFFFC
:100C7000FFFFFF70FFFFFE01FFFFFFFFFFFF00010F
:100C80000000000000000000000000000000000064
:100C9000000000000000000000000000E0E0E0E0D4
:100CA000E0C0C08000000000000000000000000064
:100CB000000001071FBFBFDFDFDFE7EBECF6F60642
:100CC000F2FAF8FCFC7F7FFEF3CF3F7F7F7FFF7F50
:100CD0007F3F0FEFE7878700FD81F8F3F7F7F7070E
:100CE000E9EFEF6F2F9EDEDFDFDFDFCFEFEFEFEF1C
:100CF000FFFF00BF5FEF001FFFFFFFFFFF0F001FA1
:100D00001F3F3E7EFE0000000000000000000000CB
:100D1000000000000000000000000000FFFFFFFFD7
:100D2000FFFE01DDBDBB030000000000000000006D
:100D300000000001030787DBDB9DBF3F7F7FFFFFD4
:100D400000FFFFFFFFFFFFDFC7EBECE607B6D401B4
:100D5000035BDC0ECFE7676F6F6B03C1EECFDFDFA6
:100D60009F5F4F0FBFBFBFBF3F7F7FFFFFFFFFFFF3
:100D7000FFFFFEFEFCF8F0E0E3C71F1F07000000C6
:100D80000000000000000000000000000000000063
:100D900000000000000000000000000083838707BF
:100DA0000707000D050000000000000000000080A3
:100DB000C0E0F0FC7E7F3F1F1F1F3F3E2D03060655
:100DC00004050303038FBF3FCFF7F9FEFFFFFFFFCB
:100DD000FFFFFFF2C89E9C1800009861BFBF1F3F35
:100DE0003FBFBE00BD391BB7AF8F9F3F7F7F7FFFE7
:100DF000FFFFFFFF03C73FFFFFFFFFFEF8C000003C
:100E000000008080C0000000000000000000000022
:100E1000000000000000000000000000030101408D
:100E20004060600001010101010000020202020AAB
:100E30001A7AF8F0F0E0C0808080C0C04000000066
:100E4000000000000E3F813EFFFFFFFFFFFFFFFF9E
:100E5000FFFFFFFFFFFFFFFFFEFF01F8FBFB7F3EF1
:100E600018C1C30138FEFFFFFFFFFFFFFFFFFEFEBB
:100E7000FCFDFF80FEFFFC03FFFFFFFFFFFF001EE6
:100E80001E1F1F1F1F0000000000000000000000C8
:100E9000000000000000000000000000E0F0E0E0C2
:100EA000E0E0E0C0000000000000000000000000E2
:100EB00000000003079FFFDFDFFFE7E3F5F6F6160C
:100EC000E2FAFCFC3C7FFFFEF3CF3FFFFFFFFF3F5A
:100ED000FF1FCFEF8F8F070003FBE0DDDDDD9C867A
:100EE000B3BFBF7F7C78797F7F7F7F7F7F7F3FBF6E
:100EF000FFFF03FF7F3FC7F8FFFFFFFFFF3FC0E09B
:100F0000E0E0C0C080000000000000000000000021
:100F1000000000000000000000000000FFFFFFFFD5
:100F2000F807B7B702000000000000000000000052
:100F3000000080C0F0F9FDFBFBF3E7D7376F6E636D
:100F40005F5F3F3F7FFEFE7F9FE7F9FEFFFEFCFDF8
:100F5000FFFCC3B93C30300000837F3FBF1F3F1F01
:100F6000DFDC825E1D89DBD7C7CFCFDFDFDFBFBF0E
:100F7000BFFFF004F9C73FFFFFFFFFFEF8C000C04E
:100F8000E0E0F0F0F80000000000000000000000C9
:100F9000000000000000000000000000C1614101ED
:100FA0000100038180808080808000404040405864
:100FB0005C1E1F1F0F070301030303020000000054
:100FC0000000002078FD01FEFFDFFFFFFFFFFFFFB5
:100FD000FFFFFFFFFFFFFFFEFEFF00F3F3FF7E3C7E
:100FE00008C1C08C1E3FFFFFFFFFFFFFFFFFFFFF99
:100FF000FFFFFF70FFFFFC03FFFFFFFFFFFF00018C
:1010000001010101010000000000000000000000DB
:1010100000000000000000000000000000000000D0
:10102000101818000000000000000000000000017F
:10103000030F1F3E7EFCFCF8F8F8F83C546070B0DB
:101040003090D0E0E0F1FDF8E79F7FFFFFFFFFFF6A
:10105000FFFF7FBFDF1F1F010303F0CDDDDDDCDEFF
:1010600003BFBFBFBF3E3CBFBFBF9FDFDFDFCFEFD0
:10107000EFFF7F801F6FA30C1FFFFFFFFF3F00FEEE
:10108000FEFCFCF8F800000000000000000000007A
:10109000000000000000000000000000C4F0F8F8AC
:1010A000F8F8F8F8F8000000000000000000000068
:1010B00000000080C0E1E3DBBBFDFDFEFEFFFFFFA3
:1010C00000FFFFFFFFFFF3E7976FEEDDC3039767B6
:1010D000E0C3CCD39783230000BFBF9F9FAFAFB7C0
:1010E00080BBBDBCBEBFBFBF9FDFFFFFFFFFFFFFD9
:1010F000FFFFF0F1FCFEFEFE7F3F1F070100000036
:101100000103070F0F0000000000000000000000B6
:10111000000000000000000000000000FFFFFFFFD3
:10112000F007B7B70000000000000000000000005A
:10113000000080C0F0FDFDFBFBFBE7D737776C2399
:101140001F1F1F3F3EFFFF1FE7FDFEFFFFFEFEFFCD
:10115000FEF1C4DE8C888800FFE00FEFE7E7C717D9
:1011600033601B83E3F9FAFAF9F9FBFBFBFBF3F7B6
:10117000FFFF807FFEF107FFFFFFFFFFFEE00E1F76
:101180000F0F0F0F0700000000000000000000001C
:10119000000000000000000000000000C16121000C
:1011A0000000038180808000004040404040405863
:1011B0005C1F1F0F07030101010101030000000074
:1011C000000000307CFD00FFFFEFFFFFFFFFFFFF8F
:1011D000FFFFFFFFFFFFFF7FFFFF003E3EBF1F87B8
:1011E000E0F8F8F1E7CF9FFFFFFFFFFFFFFFFFFFF2
:1011F000FFFFFF07FFFF7F80FFFFFFFFFFFF00F004
:10120000F0E0E0E0C000000000000000000000008E
:1012100000000000000000000000000000000000CE
:10122000101818000000000000000000000000017D
:1012300003070F3F7EFEFCFCFCFCFC3C526070B0E0
:10124000B090C0E0E0F9FFFCF3EF9F7FFFFFFFFFEE
:10125000FF7FFF1FEFE78784001886F9FBFBF3F79A
:1012600080777737B7D7E7E7F7F3FBFBFBFBFDFDAD
:10127000FDFFFF003BC5ECE8E1FFFFFF3F0700017A
:1012800003070F1F1F000000000000000000000007
:10129000000000000000000000000000C4F0FCFCA2
:1012A000F8F8F8F8F8200000000000000000000046
:1012B00000000080C0E0E3DBDDFDFEFEFFFFFFFF7E
:1012C00000FFFFFFFFFFFFF9E3CBB7777025C0C535
:1012D000983873E6E5F3E1C0C0006FEFE7E3EBEDAC
:1012E000E4E0F7F7F7F7F7F7F3FBFBFFFFFFFFFF8C
:1012F000FFFFFFFEFF7F3F1F8FE7C30000000000DE
:1013000000000000000000000000000000000000DD
:10131000000000000000000000000000FFFFFFFFD1
:10132000FFF8076E6E0E00000000000000000000D5
:101330000000000080E1F2FAF7F7EFCF2F5FDFDE69
:1013400083BF7F7F7EFEFEFF3FCFF3FCFEFFFBFFF0
:10135000FEF883397D30300000833FDFCFEFCF8F41
:101360003770473707C2F2F5F1F3F3F7F7F7F7E70E
:10137000EFFFFC03FEF9C73FFFFFFFFFFFF8071F6A
:101380000F0F07070300000000000000000000002E
:10139000000000000000000000000000C1C1C141C9
:1013A000010100078180808080808080808080A013
:1013B000B0B83E1F0F0F0703030303070700000029
:1013C00000000000C0F193E1FEFFBFFFFFFFFFFF41
:1013D000FFFFFFFFFFFFFEFEFEFFC03C7C7C7F1F88
:1013E00086E0F0F0E38F1F3FFFFFFFFFFFFFFFFFEF
:1013F000FFFFFFFE1FFFFF00EFFFFFFFFFFFFF00EC
:10140000F0F0F0F0F000000000000000000000002C
:1014100000000000000000000000000001010000CA
:10142000203030300000000000000000000000020A
:10143000060E1E3EFEFCFCF8F8F8F8F868A0C0E0C6
:101440004040408080C3F7F8F3CFBF7FFFFFFFFF2E
:10145000FFFFFFFF3FBF9F1F01036318F2F7F7F77E
:10146000F701EFEF6F2FAFCFEFE7E7F7F7F7F3FBFA
:10147000FBFBFFFF0023CBD8C1C3FFFFFF3F0700EB
:10148000000103030700000000000000000000004E
:101490000000000000000000000000008EE0F8F8EE
:1014A000F8F0F0F0F0E000000000000000000000A4
:1014B000000000008081C3B777FBFBF8FCFDFEFE57
:1014C0000EF8FFFFFFFFFFFBF3C7A76EE1DB57013D
:1014D0008B3361E7C8A7E7E2624000DFDFCFC7C711
:1014E000CBC8C0EEEFEFEFEFEFE7F7FFFFFFFFFF37
:1014F000FFFFFFFFFCFFFF7F3F1F8F830100000006
:1015000000000000000000000000000000000000DB
:10151000000000000000000000000000FFFFFFFFCF
:10152000FFF01DBBBB3B00000000000000000000FE
:10153000000001030707C7D7BBBB7F7FFFFFFFFC8E
:101540000FFFFFFFFFFFCFE3ECF6773BC2C8616DF3
:10155000F63787E7737B7B7B0180FBFBF7F7E7C7F9
:10156000D3833777E7EFEFEFEFDFDFFFFFFFFFFF1B
:10157000FFFFFF7FFFFEFCF8F3E3C1000000000067
:1015800000000080C000000000000000000000001B
:10159000000000000000000000000000070707072F
:1015A0000707001D0100000000000000000000C04F
:1015B000E0F0F87C7E3F1F1F1F3F3F3C0A060C0DEA
:1015C000080B03070F3F7F9FE7F9FEFFFFFFFFFFB9
:1015D000FFFFE1CEDF88880080C71DCFEFEFCF0F80
:1015E0002FE7003786C6E5E9E3E7EFEFCFDFDF9FC0
:1015F000BFFFFF00F8C73FFFFFFFFFFFF88070F855
:10160000FCFE7F7F3F0000000000000000000000A3
:10161000000000000000000000000000030180C086
:10162000C0E00001010000020202020202020A1AE6
:101630007AF8F8F0E0C0C08080C0C0400000000030
:101640000000000C3F730EFFFFF7FFFFFFFFFFFFDF
:10165000FFFFFFFFFFFFFFFFFF03387E7E3F1FC737
:10166000E0F0E0C60F3F7FFFFFFFFFFFFFFFFFFF40
:10167000FFFF7FF0FFFF00FFFFFFFFFFFFFF000105
:10168000000000000000000000000000000000005A
:10169000000000000000000000000000E0E0E0E0CA
:1016A000C0C0C000000000000000000000000000FA
:1016B000000003071FBFBFDFDFC7E3E9ECF636C654
:1016C000FAFAF8FC3C7FFFFCE3DF3FFF7FFFFF3FC0
:1016D000FF1FCFE7C7870000C1BCF9F7F7F7F70195
:1016E000EDEF6F6FAF9EDFDFDFDFDFCFEFEFEFEF0D
:1016F000FF7F801F6FA7189FFFFFFFFF3F030C1F97
:101700001F3F7E7EFE000000000000000000000081
:10171000000000000000000000000000FFFFFFFFCD
:10172000FFFF00BDBBBB1B0000000000000000006D
:101730000000010103070FD7D7BBBB7F7FFFFFFF6F
:1017400000FFFFFFFFFFFF9FC7D3EDEE0FB695032E
:1017500087DBDC0ECFEFEFEFEF0703C9CEDFDF9FB4
:101760009F5F0F1FBFBFBF3F7F7F7FFFFFFFFFFF59
:10177000FFFFFEFCFCF8F0E1C78F1F0F0000000028
:101780000000000000000000000000000000000059
:1017900000000000000000000000000003870707B1
:1017A0000707001D0D010000000000000000008080
:1017B000C0E0F0F8FC7E3F3F1F3F3F3E7C020E0D35
:1017C0000D090B07071F7F7F9FE7FBFCFFFFFFFF54
:1017D000FFFFFFE299BE101000808C73BFBF1F3F58
:1017E000BFBF3E003D3B13B7AF9F9F3F7F7F7FFF53
:1017F000FFFFFF3FC38F3FFFFFFFFFFCF0800000B4
:101800000080C0E0E00000000000000000000000D8
:101810000000000000000000000000000003018044
:10182000C0C0E00001010002020202020202020A3C
:101830003A7AF8F0E0E0C080808080C0400000008C
:10184000000000001E7F017EFFFFF7FFFFFFFFFF8C
:10185000FFFFFFFFFFFFFFFFFEFF01F8FBFB7F3EE7
:1018600018C1C3013CFEFFFFFFFFFFFFFFFFFEFEAD
:10187000FCFDFF80FFFFF807FFFFFFFFFFFF001FDA
:101880001F0F0F0F0F0000000000000000000000FD
:1018900000000000000000000000000080F0E0E018
:1018A000E0C0C0C000000000000000000000000018
:1018B000000001030FBFBFDFDFDFC7EBECEEF61662
:1018C000E6FAFAFC7C7FFFFCE39F7FFFFFFFFF7FD0
:1018D000FF3FDFCF0F0F0F0003F3E0CDDDDD9C06F0
:1018E000B3BFBF7F7C78797F7F7F7F7F7F7F3FBF64
:1018F000FFFF03FF7F3FC3FCFFFFFFFFFF0FE0F091
:10190000F0E0E0E0C000000000000000000000AED9
:1019100000AF07087F0807003E6B4F6B3E00C19485
:10192000B094C1001C3E7C3E1C00183C7E3C18005C
:101930001C577D571C001C5E7F5E1C0000183C1865
:101940000000FFE7C3E7FF00001824180000FFE7CE
:10195000DBE7FF0030483A060E00262979292600E9
:10196000407F05050700407F05253F005A3CE73CC6
:101970005A007F3E1C1C0800081C1C3E7F001422DD
:101980007F2214005F5F005F5F0006097F017F0018
:10199000006689956A0060606060600094A2FFA2A2
:1019A000940008047E04080010207E20100008081F
:1019B0002A1C0800081C2A0808001E10101010001D
:1019C0000C1E0C1E0C0030383E383000060E3E0E49
:1019D000060000000000000000005F00000000079B
:1019E00000070000147F147F1400242A7F2A1200AD
:1019F000231308646200364956205000000807038C
:101A00000000001C224100000041221C00002A1C92
:101A10007F1C2A0008083E08080000807030000083
:101A20000808080808000000606000002010080492
:101A300002003E5149453E0000427F40000072498D
:101A4000494946002141494D33001814127F1000C6
:101A50002745454539003C4A494931004121110992
:101A60000700364949493600464949291E00000009
:101A7000140000000040340000000008142241005F
:101A8000141414141400004122140800020159090E
:101A900006003E415D594E007C1211127C007F49C8
:101AA000494936003E41414122007F4141413E00CB
:101AB0007F49494941007F09090901003E414151DF
:101AC00073007F0808087F0000417F41000020402C
:101AD000413F01007F08142241007F404040400008
:101AE0007F021C027F007F0408107F003E414141BD
:101AF0003E007F09090906003E4151215E007F0931
:101B00001929460026494949320003017F01030093
:101B10003F4040403F001F2040201F003F403840D2
:101B20003F00631408146300030478040300615940
:101B3000494D4300007F414141000204081020004C
:101B4000004141417F000402010204004040404046
:101B500040000003070800002054547840007F280C
:101B600044443800384444442800384444287F0022
:101B700038545454180000087E09020018A4A49C8C
:101B800078007F080404780000447D400000204075
:101B9000403D00007F102844000000417F400000CD
:101BA0007C04780478007C080404780038444444B9
:101BB0003800FC182424180018242418FC007C0881
:101BC0000404080048545454240004043F442400EE
:101BD0003C4040207C001C2040201C003C40304009
:101BE0003C004428102844004C9090907C004464B1
:101BF000544C44000008364100000000770000000B
:101C00000041360800000201020402003C2623269F
:101C10003C0000000000000000008080E0F0F0FCCC
:101C200070FCF07CF0FC70FCF0F0E08080000000C4
:101C30000000000000008080800000008080000024
:101C40000000008080008080000000808000000094
:101C50000000808080808000808000000000000004
:101C60000000000000000000000000000000000074
:101C70000000000000000000000000000000000064
:101C80000000000000000000000000000000000054
:101C900000C0F0F8FC3E1E06010000007F414141FB
:101CA0007F007F4141417F000080C0E07E5B4F5B51
:101CB000FEC00000C000DCD7DEDEDED7DC00C000E6
:101CC0000000000000000000000000000000000014
:101CD00000000000000000000000AAAAFFFFFFFFB4
:101CE000E0DFDF00DFDFE0FFFFFFFFAAAA00000068
:101CF000000000003E7FC1C1C17F3E00FFFF0F3CDE
:101D0000783C0FFFFF00FFFF1C3E77E3C10000009F
:101D10000000FFFF19191900FDFD00FEFC0606007A
:101D2000FEFC0606FCFC0606FEFC001E7CE0780CB1
:101D300078E07C1E0064F692927EFC00FEFC0606B3
:101D4000003C7ED2D2DE4C0000000000000000000B
:101D500000030F1F3F3C7870600000007F4141414D
:101D60007F007F4141417F00307B7F7830202030F1
:101D7000787F3B0003000F7F0F0F0F7F0F000300E2
:101D80000000000000000000000000000000000053
:101D90000000000000000000000000000307071F13
:101DA000071F071F071F071F07070300000000008A
:101DB000000000000000000001030200000000001D
:101DC0000000000000000000000000000000000013
:101DD0000000000000000000000000000000000003
:101DE00000000000000000000000000000000000F3
:101DF00000000000000000000000000000000000E3
:101E000000000000000000000000000000000000D2
:101E100000000000000000000000000000000000C2
:101E200000000000000000000000000000000000B2
:101E300000000000000000000000000000000000A2
:101E40000000000000000000000000000000000092
:101E5000000000DA0281FFD9F1DB20A4A62EAF003A
:101E6000A0C0D30000A1C8D30000AED580A81F40F9
:101E70008D142000000000000000000000000000A1
:101E80000000000000000000000000000000000052
:101E900000000000000000007E0F00D4FFFFFFC71D
:101EA0000000007800000000000000002A2B28003D
:101EB00000000000000000000000000000000029F9
:101EC000000000002C1E3420212224342627252E39
:101ED000362D3738271E1F20212223242526333371
:101EE000362E37381F0405060708090A0B0C0D0E9D
:101EF0000F101112131415161718191A1B1C1D2F69
:101F00003130232D350405060708090A0B0C0D0E88
:101F10000F101112131415161718191A1B1C1D2F48
:101F20003130354C11241FBECFEFDAE0DEBFCDBF1C
:101F300011E0A0E0B1E0E2E5FDE602C005900D92FF
:101F4000A23FB107D9F725E0A2EFB1E001C01D9291
:101F5000AB38B207E1F70E94982B0C9442360C94F0
:101F60000000982F92959F7061F420E0982F892FA0
:101F70008695869511F02E5F982F892F8695820F72
:101F8000089524E0F4CF8093440508958093450597
:101F9000089521E001C0220F8A95EAF78091450556
:101FA000822BF4CF21E001C0220F8A95EAF7822F1D
:101FB0008095909145058923E9CF292F9A3090F596
:101FC000863080F590E036E0239F800D911D11242E
:101FD00051E081FD54E080FD550F82FD529523E0D4
:101FE000969587952A95E1F7FC01EE0FFF1FE80F04
:101FF000F91FE25EFA4F20E030E070E04191DF012E
:10200000CB01022E02C0969587950A94E2F7869539
:10201000880B8427852384278E932F5F3F4F23309F
:10202000310561F70895292F9A3070F5863060F5F3
:1020300090E036E0239F800D911D1124682F67707A
:1020400023E0969587952A95E1F7FC01EE0FFF1F97
:10205000E80FF91FE25EFA4F40E050E080E0219186
:1020600030E0062E02C0369527950A94E2F72170DB
:10207000042E01C0220F0A94EAF7822B4F5F5F4FB4
:102080004330510561F7089580E00895909145052A
:1020900021E030E0F90101C0EE0F8A95EAF7D9019D
:1020A00001C0AA0F6A95EAF7EA2B01C0220F4A95F0
:1020B000EAF7892F8E23E81303C0892F822B66CF7E
:1020C0002095822F8923FBCFE0914B0590914A0503
:1020D000E91302C080E008959F0157E0E59FF001F9
:1020E0001124E45BFA4F5181561306C050815813F6
:1020F00003C05581541305C02F5F3F4FF901E770AE
:10210000E7CF81E0089580914B0520914A0528137F
:1021100001C0089501968770FACF90914605809589
:10212000892380934605282F277061F4891751F081
:102130009091480592FF06C086958695869532DF78
:102140001092460508958091410590914905892B8B
:10215000909142059115C9F0892B909150019130D1
:1021600021F49091470597FD11C096E026EF31E0EC
:1021700040E09150F90150812F5F3F4F51114F5F67
:102180009111F7CF41111092420508959EE12EEF73
:1021900031E0EECF8095982F80914105892380937F
:1021A00041050895803E9105D1F1C8F48133910530
:1021B00009F481C048F48932910509F471C08A326A
:1021C000910509F47FC0089589339105E1F08238C3
:1021D0009105C9F08533910509F45DC00895843EE9
:1021E0009105D1F148F4823E910531F1833E91058C
:1021F00041F181EE90E00895863E9105C1F1873E60
:102200009105F1F1089520914705237009F064C00C
:102210002091480523FF14C089E290E008952091A1
:10222000470520FD45C03091480530FF09C024FD19
:1022300024C083EE90E008952091470522FDF7CF5A
:1022400008952091470522FD44C03091480530FD96
:1022500043C024FFF5CF11C02091480521FFF0CFE6
:102260008091470584FD09C087EE90E00895209194
:10227000470523FFE5CF24FFF7CF80E090E00895E6
:102280002091470523FD2BC03091480531FFE1CF58
:1022900084EE90E008952091470525FFD1CFBCCF73
:1022A0002091470525FD1EC02091480523FFC8CF7A
:1022B00089E390E008952091470526FFC1CF8AE287
:1022C00090E008952091470526FFBACF81E390E082
:1022D000089582EE90E0089580EE90E0089586EEF5
:1022E00090E0089585E390E008959091470592FF6E
:1022F00010C041E0282F2471243009F040E031E083
:10230000282F2871283009F030E0431711F02CE015
:10231000822793FF10C041E0282F2471243109F057
:1023200040E031E0282F2871283109F030E04317D0
:1023300011F02CE082273091480530FF10C051E0A9
:10234000282F2171213009F050E041E0282F287119
:10235000283009F040E0541711F029E0822731FFBE
:1023600010C041E0282F2171213109F040E031E017
:10237000282F2871283109F030E0431711F029E0A7
:10238000822794FF02C083FD877E08950F931F93D9
:10239000CF93DF9307DFEC01D23508F04DC0D03585
:1023A00008F0C3C0C03ED10530F5CD3CD10508F0E2
:1023B0009AC0C83AD10578F4C53AD10508F090C062
:1023C000C130D10599F1CE010497813A910570F1A0
:1023D000C0E0D0E02BC0CE01885A91094B97C0F7DE
:1023E000C85AD0E0CC0FDD1FCA57DE4F0990D88104
:1023F000C02DD4641BC0D03490F4D03208F0A8C0F3
:10240000C83ED10598F0CE0191509F3108F78D2F2D
:102410006CDF082F8C2F90E0C5DE902B54C08C2FE2
:1024200090E0C0DEDF70C82FD92BD06ACE01DF91DB
:10243000CF911F910F910895C03882E5D807B8F564
:10244000C03682E5D80708F056C0C03482E5D80708
:10245000C8F4C03282E5D80708F047C08C2F8695B3
:10246000869520E2829FC0011124C37021E030E0F4
:1024700002C0220F331FCA95E2F7E901C82BD92BFE
:10248000DD68D4CF8C2F86958695877020E2829F59
:10249000C0011124C37021E030E002C0220F331FBD
:1024A000CA95E2F7E901C82BD92BDC68BFCFC03C45
:1024B00082E5D80750F48C2F8F71C03AD24580F551
:1024C000982F84EF906AEC01B1CFCE01805C9245E9
:1024D000809708F07DCFDC2FDF71C0EFD06AA6CFE8
:1024E000A497D064A3CFD065A1CF8C2F8F71D82FA4
:1024F000C1EFD06A9BCF8C2F86958695877020E29E
:10250000829FC0011124C37021E030E002C0220F7D
:10251000331FCA95E2F7E901C82BD92BDA6886CFB9
:10252000E4DEC0E0D82FD06281CF8C2F8F71DDDE4A
:1025300093E0CC0FDD1F9A95E1F7DF70282F84FF21
:1025400004C090E1899F90011124C22FD0696ECF01
:102550008D2F8F71CADE082F8C2F90E023DE902BF9
:10256000EC01E1CF80E00895F894E82FE295EF7058
:10257000F0E041A18F7021E001C0220F8A95EAF7B7
:10258000922F9095942391A392A1822F892B82A3BD
:102590007894089581E08093980408959091C504FB
:1025A000292F30E07091C604A9014395437050E093
:1025B0007417150689F02D533B4F60FB87F9F9011D
:1025C00084839F5F93709093C5048091C3048F5F51
:1025D0008093C30481E0089580E0089590E0611540
:1025E000D1F0885F9E4FFC0180818F3F99F0E82FEA
:1025F000E295EF70F0E041A18F7021E001C0220F61
:102600008A95EAF7922F9095942391A392A1822F15
:10261000892B82A30895875F9E4FE5CF90E06115D7
:10262000A9F0885F9E4FFC0120812F3F91F0E22F9F
:10263000E295EF70E05EF0E0808190E02F7002C0E4
:10264000959587952A95E2F781700895875F9E4F4B
:10265000EACF80E00895FC01680F791F8FEF41E316
:102660009191892728E030E0982F990F87FF09C0C2
:10267000892F842721503040B9F7E617F70781F7F3
:102680000895892FF7CF382F25EB3203C00111248D
:1026900097FF04C080589109892F089580589F4F53
:1026A000FBCF8091380580FD14C081FD14C082FDF0
:1026B00016C080913705811581F08E3180F420E5B8
:1026C000829FC00111246EE170E00E94B335862F15
:1026D000089584E1089588E2089588E0089580E5EA
:1026E00008958091380580FD17C081FD17C082FDD7
:1026F00019C080913605811599F0883298F428E048
:10270000829FC001112468E270E00E94B335611518
:10271000710551F0862F089562E0FCCF64E0FACF96
:1027200061E0F8CF68E0F6CF81E008958091EC0495
:10273000811571F0E0911405F0911505309739F08D
:102740000190F081E02D309711F00995089580E017
:102750000895A3E0B0E0EFEAF3E10C948035209116
:1027600035023091360228173907B1F080933502CF
:1027700090933602E0911405F0911505309761F0C1
:102780000084F185E02D309739F023E029838A8396
:102790009B83CE01019609952396E2E00C949C352B
:1027A000A3E0B0E0E6EDF3E10C9480352091330234
:1027B0003091340228173907B1F080933302909397
:1027C0003402E0911405F0911505309761F0008412
:1027D000F185E02D309739F024E029838A839B83AB
:1027E000CE01019609952396E2E00C949C359091D8
:1027F0005001913099F0A6EFB1E0EFEF90E02C910D
:10280000821759F01196EF3F19F4211101C0E92FF9
:102810009F5F9630A1F7EF3FC1F40895909147056F
:1028200097FFE9CFE82FE695E695E695803FA8F774
:10283000F0E0E450FE4F877021E001C0220F8A953E
:10284000EAF78281822B82830895FE2FFF0FFF0B10
:10285000EC50FE4FF8CF90915001913021F49091BF
:10286000470597FD0CC0E6EFF1E09191891302C096
:10287000DF011E9291E0EC3FF907B9F70895E82FC8
:10288000E695E695E695803FC8F7F0E0E450FE4F08
:102890009DEF81FD97EF80FF959582FD9295828156
:1028A00089238283089580914F0108952FB7F8946A
:1028B00060912F027091300280913102909132022A
:1028C0002FBF08958091EC04811539F0EFDF462F7A
:1028D000572FBC01CB01BA010895E8DFDC01CB0121
:1028E0004091EE045091EF046091F0047091F10476
:1028F000480F591F6A1F7B1FEDCF87E797E780932B
:1029000000089093010888E19AE00FB6F894A89522
:10291000809360000FBE90936000FFCFFC01809118
:102920002502909126028617970748F061157105D8
:1029300029F48091E8008E778093E800CB0140E095
:10294000009741F4411106C08091E80082FF30C039
:1029500080E00895209193042115B1F12530B1F163
:102960002091E80023FD2EC02091E80022FDECCF4D
:102970002091E80020FFE4CF4091F3002091F20085
:10298000342F009719F02830310558F041E02830F5
:10299000310509F040E02091E8002E772093E8000F
:1029A000CFCF41914093F10001972F5F3F4FE9CF87
:1029B00080919304811541F0853041F08091E800C9
:1029C00083FFC2CF81E0089582E0089583E00895F7
:1029D000982F9093E900891771F07091EC00209185
:1029E000ED005091F00021FD09C09F5F973089F7FD
:1029F0008093E9000895762F242F50E03091EB006A
:102A00003E7F3093EB003091ED003D7F3093ED0041
:102A10003091EB0031603093EB007093EC00209329
:102A2000ED005093F0002091EE0027FDDECF0895D9
:102A300080911F0287FF13C08091E80082FF06C0CB
:102A40008091E8008B778093E8000895809193044B
:102A50008111F2CF0895809193048115D9F380916B
:102A6000E80080FFF8CF8091E8008E77ECCF2091CE
:102A7000E4003091E50095E6A9012091EC00822F59
:102A8000817020FF06C08091E80080FF06C080E0D2
:102A900008952091E80022FD1AC0809193048115C9
:102AA00089F0853089F08091EB0085FD0FC0209181
:102AB000E4003091E50042175307F9F29150E1F636
:102AC00084E0089582E0089583E0089581E0089508
:102AD000CF93DF93C8EDD0E088818F7E8883E7EDC8
:102AE000F0E080818160808384E082BF81E0809318
:102AF0001E0288818E7F8883E2EE10821092DA00B7
:102B0000A1EEB0E01C9288818F77888388818068ED
:102B1000888388818F7D888319BC109293041092DA
:102B20001D021092720410921C02A0EE8C918B7FF9
:102B30008C9388818160888342E060E080E048DF98
:102B4000A1EEB0E08C918E7F8C93E2EEF0E080817C
:102B500081608083808188608083E0EE80818E7FC9
:102B60008083888180618883DF91CF910895E8ED2B
:102B7000F0E080818E7F80831092E2001092DA0074
:102B80001092E100A0EEB0E08C9181608C93808186
:102B90008F77808319BCA7ED8C918E7F8C93808179
:102BA0008F7E808310921E020895A0E0B0E0EBEDCE
:102BB000F5E10C9478357C016B015A018091CF04CA
:102BC0000AE010E08A3010F001E010E0C1E0D0E04F
:102BD000B601C701F5010995811115C021960C17A1
:102BE0001D078CF0CC9F9001CD9F300D300D11242E
:102BF00080E090E045E34A95F1F7000001968217E6
:102C00009307C1F7E5CFCDB7DEB7EAE00C94943572
:102C10000F931F93CF93DF93EB018A01909193045D
:102C2000943059F58093E9008FEF9091E80095FD7D
:102C300006C095ED9A95F1F700008150B1F78091AB
:102C4000E80085FF1AC013DF811112C08091E800EF
:102C500085FD06C08091E8008E778093E800F3CF71
:102C600088818093F1000150104011F02196EECF41
:102C70008091E8008E778093E800DF91CF911F91DB
:102C80000F910895603229F440E250E0BC0182E0E7
:102C9000BFCF0895CF93DF93EC0148E050E0BC0133
:102CA00081E0B6DF88E0FE01A7E2B2E001900D927C
:102CB0008A95E1F7DF91CF91089540E250E0BC01A1
:102CC00084E0A6CF46E050E0BC0184E0A1CF43E021
:102CD00050E0BC0184E09CCF9091480592FB2227F4
:102CE00020F9281771F080FB92F9909348056091C4
:102CF00047057091480584E090E00E942E3682E0FE
:102D00000CCA08951F93CF93DF93122F8530E0F400
:102D10006A30D0F44630C0F4C42FD0E0CC0FDD1FB1
:102D20002CE0629FC00DD11D112498E7899FC00D32
:102D3000D11D1124632FCE0189960E941436612F74
:102D4000CE018A960E941436DF91CF911F9108958B
:102D5000AF92BF92CF92DF92FF920F931F93CF93C8
:102D6000DF93A12CB12C00E0650110E012C0FE0140
:102D7000259135914F2D612F802FC4DF2296F3943A
:102D80008F2D8630A1F786E0C80ED11C1F5F1A3048
:102D900039F0E601CC0FDD1FCD59DD4FF12CE7CF27
:102DA0000F5F8CE3A80EB11C0530F1F6DF91CF91D7
:102DB0001F910F91FF90DF90CF90BF90AF9008953B
:102DC00080915001813061F58091470587FF28C0CF
:102DD000BAD98093FD0140E250E064EF74E08CEFDB
:102DE00091E00E94DF35892BD1F080E2ECEFF1E039
:102DF000A4EFB4E001900D928A95E1F7E0911405FB
:102E0000F0911505309759F00480F581E02D309749
:102E100031F086E08093FC018CEF91E009950895F4
:102E200092D98093F40148E050E066E175E084EFC8
:102E300091E00E94DF35892B91F388E0E4EFF1E027
:102E4000A6E1B5E001900D928A95E1F7E0911405B5
:102E5000F0911505309719F30280F381E02D30973A
:102E6000F1F284EF91E0DACF811531F090914105D4
:102E7000982B90934105A4CF0895811511F08AD91C
:102E80009FCF0895811531F090914905982B90932B
:102E9000490596CF0895811539F08095909149059F
:102EA0008923809349058CCF0895CF93DF938A308F
:102EB00029F481E084D0DF91CF9108958D3011F411
:102EC00080E0F8CFC0916602D091670296E0FE01E3
:102ED000AEE5B2E001900D929A95E1F7803E78F16F
:102EE00086E019928A95E9F7C0916602D09167024F
:102EF000611131C046E050E0BE018EE592E00E94D3
:102F0000DF359E0128563240892B81F52A5F3F4FDD
:102F100040916F04642F70E0C9010E945C35481B2A
:102F2000463010F4240F311D323010F020E030E034
:102F300028593D4F2093660230936702BCCF96E03C
:102F4000899FF0011124EE5EF64E46E050E0DE016E
:102F50000E94DB35C9CF9E012A5F3F4FFE012E172D
:102F60003F0741F2808180958193F9CFC90145E007
:102F7000969587954A95E1F741E050E0BA0102C085
:102F8000660F771F8A95E2F7CB016091640270911A
:102F90006502862B972BB9016B5F7F4FE5E0769535
:102FA0006795EA95E1F702C0440F551F6A95E2F76D
:102FB000842B952B8093640290936502A7CFCF93C7
:102FC000382FE0916602F0916702E856F2402091B6
:102FD0006F04622F70E0CF010E945C35281B822FA6
:102FE000311569F066E00E94A735C82FC11102C0F3
:102FF000CF910895C15060E080E257DFF7CF8E0F88
:103000009F2F911D923010F080E090E088599D4FE5
:103010008093660290936702EBCF1F93CF93DF9369
:10302000EC01162FFE018491811104C0DF91CF9134
:103030001F910895612F39DF2196F4CFEEDF81E0F3
:10304000BECFA1E0B0E0E7E2F8E10C947035A62E27
:103050004A0119016801082F880F110BC8010E944D
:10306000EE34B82E811509F465C093E0000F111FEE
:103070009A95E1F7F801EA5EFE4F8381482F50E010
:10308000811141E00A5E1E4FF8016481758165552A
:103090007B4FCE0101960E94EC35F40140805180B7
:1030A0006280738003DCDC01CB0184199509A609D9
:1030B000B70984369105A105B10530F4B701C60101
:1030C000CADA99818917B1F10A2D1A2D110F110B46
:1030D000C8010E94EE34B82E811106C0B12C8B2D90
:1030E0002196E2E10C948C3583E0000F111F8A9544
:1030F000E1F7F801EA5EFE4F8381482F50E0E816C1
:10310000F10408F4A7010A5E1E4FF801648175817D
:1031100065557B4FC1010E94EC35B701C6019BDAB2
:1031200099818913DBCFC2DBF401608371838283D1
:103130009383D5CFA701B601C1010E94EC35CFCF53
:10314000A5E0B0E0E6EAF8E10C947A356B017D0188
:103150000CEA14E0CE0101969C0147EA54E061E0DC
:1031600080E06FDF811559F095E09E012F5F3F4FA2
:10317000F901A2EAB4E001900D929A95E1F795E089
:10318000E2EAF4E0D60101900D929A95E1F72596D6
:10319000E8E00C949635A8E0B0E0E1EDF8E10C949D
:1031A0007C357D0107EB14E0CE0101969C014AE9D4
:1031B00054E064E083E045DF082F811581F19091B0
:1031C000B60480919904981751F110E09091BA04D7
:1031D0008091B9048917E9F0E92FF0E0E155FB4F40
:1031E000848587FB662760F99F5F93709093BA048C
:1031F0009091B8049F5F9093B8048F77CFD9182F20
:103200008111E4CF85E090E00E94EE341823012F75
:1032100002C01111F7CF8091B60480939904802FDA
:103220002896E6E00C949835A0E0B0E0EAE1F9E1F8
:103230000C947A35EC0145E050E061EB74E00E94BB
:10324000DF358C01C0909E04D0909F04E090A004D4
:10325000F090A1042BDBDC01CB018C199D09AE0998
:10326000BF0984369105A105B10518F4C801892B61
:10327000F9F0809127019091280185559B4F20916D
:103280002601422F50E0263008F045E0BE010E94A2
:10329000EC3582E090E00E94EE34811551F006DBBF
:1032A00060939E0470939F048093A0049093A10464
:1032B00081E0CDB7DEB7E8E00C949635CF92DF928F
:1032C000EF92FF921F93CF93DF9300D000D0CDB742
:1032D000DEB7C0909404D0909504E0909604F090EE
:1032E0009704E4DADC01CB018C199D09AE09BF0912
:1032F00011E084369105A105B10568F1E3DADC013E
:10330000CB010296A11DB11D89839A83AB83BC8337
:10331000809147019091480185559B4F209146012E
:10332000422F50E0253008F044E09E012F5F3F4FD0
:10333000B9010E94EC3586E090E00E94EE34182F2F
:10334000811549F0B3DA60939404709395048093E7
:10335000960490939704812F0F900F900F900F90E9
:10336000DF91CF911F91FF90EF90DF90CF90089564
:103370000F931F93CF93DF93853008F56A30F8F4ED
:103380004630E8F4C42FD0E0CC0FDD1F9CE0699FED
:10339000C00DD11D112498E7899FC00DD11D1124A6
:1033A000CE0189960E94F835082FCE018A960E9498
:1033B000F835902FDF91CF911F910F91089580E004
:1033C00090E0F8CF462F7A3030F4663020F4853024
:1033D00010F4672FCDCF80E090E00895CF92DF9278
:1033E000FF920F931F93CF93DF936C0100914505DC
:1033F00080914405082BC4E0D0E010E0C8010C2EF9
:1034000002C0959587950A94E2F780FD0CC021973C
:10341000A8F7F12C8F2DDF91CF911F910F91FF9085
:10342000DF90CF900895FC2EB6018C2FCBDF0E9449
:10343000C611019761F3EECF0F931F93CF93FC0159
:10344000258100811181C801211579F0611569F08C
:10345000C5DFC82F682FC8010E94DD0FB8018C2F6F
:10346000B1DFCF911F910F9108950E941310C82FC3
:10347000F5CFCF93DF93EC01B1DFBE01A3DF0E9454
:10348000C611DF91CF910895FC012481211599F097
:1034900080819181EEDF282F92959F70963099F070
:1034A00060F4925F9F70923030F4203FB1F038F4B6
:1034B00081E0283E38F080E008959A5FF3CF81E004
:1034C000243FC9F7089591E0213F09F090E081E0A1
:1034D000283E08F080E0892B089581E008956F3739
:1034E00021E072078105910528F4CB018F579D4F8C
:1034F0000C94F83580E00895CF92DF92EF92FF921E
:10350000CF93DF93EC01C880D980EA80FB80B601BD
:10351000C701E5DF9FEFC91AD90AE90AF90AC8828B
:10352000D982EA82FB82DF91CF91FF90EF90DF900A
:10353000CF90089585E290E00E94F835863269F4D4
:1035400086E290E00E94F835833039F487E290E01B
:103550000E94F83591E0813109F090E0892F817067
:103560000895AB0124E630E0BC0188E70E940E33E9
:103570009C0181E0232B09F080E0089580916A048A
:103580008115E9F093D9DC01CB01805A9541AF4F09
:10359000BF4F80936B0490936C04A0936D04B09321
:1035A0006E048091690481110AC062E070E080E1DC
:1035B00099E1D7DF811519F081E0809369040895BE
:1035C00080916A04811561F080916904811541F050
:1035D00062E070E08EE099E1C4DF8111109269042D
:1035E0000895A0E1B0E0E7EFFAE10C947235FE0136
:1035F0003196DF0180E11D928A95E9F708E110E03C
:1036000091E8A92E92E0B92E612C712C23015394DC
:103610004A189E2E8F2E6201730181E148165104D3
:10362000610471041CF080E1C82ED12CA601B50103
:10363000892D982D0E940536AC0CBD1C0D2C000C5C
:1036400000084C185D08600870080150104019F718
:103650006096E0E10C948E356FEF85E290E00E9479
:1036600014366FEF86E290E00E9414366FEF87E227
:1036700090E00E94143660E088E290E00E941436E8
:1036800067DBAFDF66E285E290E00E94143663E01C
:1036900086E290E00E94143661E187E290E00C94AB
:1036A00014361F921FB61F9211248F939F93AF93CE
:1036B000BF9380917104811113C080912F0290916A
:1036C0003002A0913102B09132024196A11DB11D8C
:1036D00080932F0290933002A0933102B093320274
:1036E000BF91AF919F918F911F901FBE1F90189512
:1036F0002FB7F89480912F0290913002A09131025F
:10370000B09132022FBF0895CF93DF93EC01F0DF29
:103710008C1B9D0BDF91CF910895AFE0B0E0E3E902
:10372000FBE10C947735FE013196DF018AE01D92B2
:103730008A95E9F78BE7C82E81E0D82E7F01AE2E5F
:103740009F2C06E811E0F60181916F018F3F09F48B
:103750003DC0F894E82FE295EF70F0E021A18F7062
:1037600041E001C0440F8A95EAF7922F942B91A370
:1037700092A1842F8095892382A3789400C0E0E8E9
:10378000F1E031E0B12C21912F3F79F0A22FA295E9
:10379000AF70A05EB0E08C9190E02F7002C0959564
:1037A00087952A95E2F780FF86C080E0B82A330F1C
:1037B0000E171F0741F7F60182918F3F11F00E940B
:1037C000B41280EA8A95F1F7F701B0828FEFE81A18
:1037D000F80A80E891E08C159D0509F0B4CF4AE025
:1037E00050E06A2D792D82EE94E00E94DF3500973B
:1037F00049F02AE0EA2DF92DA2EEB4E001900D92F5
:103800002A95E1F70091E10410E009521B4F892B42
:1038100009F453C081E08093D6046ADF8093D40416
:103820009093D5048091EC04811509F49DC07E012C
:103830008BE0E80EF11CF70185E011928A95E9F71B
:103840008091CF048A3008F05BC040EA58E1B701AC
:10385000C801ABD9811509F476C044E159E1B7013B
:10386000C801A3D9811509F46EC04BEC58E1B7012A
:10387000C8019BD9811509F466C04EE559E1B7012D
:10388000C80193D9811509F45EC01092CF048091CC
:10389000D30490E045E050E0B70189529B4F0E946D
:1038A000DF3521E02093D204892B09F03FC02F9609
:1038B000EBE00C949335832F79CF8091D60481155A
:1038C00009F4B0CFE090D404F090D50411DF8E1944
:1038D0009F09059708F4A6CF45E050E062EE74E03A
:1038E000C8010E94DF35892B41F085E0E2EEF4E06B
:1038F000D80101900D928A95E1F71092D60492CFEB
:10390000C090D004D090D104F3DE8C199D09843F7F
:10391000914008F09ACF8091D204811541F2F701CD
:1039200085E011928A95E9F71092D204A091D30410
:10393000B0E0A952BB4F85E0FE013B9601900D928D
:103940008A95E1F7B4CF8091CF048F3F31F4D0DE78
:103950008093D0049093D104DECF8F5F8093CF0407
:103960008A3008F494CFF3CFE090D304F12CC70150
:1039700089529B4F7C0185E0F801ACEAB4E00190EC
:103980000D928A95E1F765E070E08CEA94E00E9480
:103990002B138093AB0485E0E1EBF4E0D7010190B9
:1039A0000D928A95E1F788E0E3ECF4E0A7EBB4E050
:1039B00001900D928A95E1F768E070E087EB94E062
:1039C0000E942B138093B604C090BF04D090C00413
:1039D000E090C104F090C2048091CB049091CC049B
:1039E000A091CD04B091CE04C816D906EA06FB0614
:1039F00009F45DCFC092CB04D092CC04E092CD0408
:103A0000F092CE040E945614C61AD70AE80AF90AA0
:103A1000C092EE04D092EF04E092F004F092F10430
:103A200046CF4F925F926F927F928F929F92BF92FA
:103A3000CF92DF92EF92FF920F931F93CF93DF937A
:103A400080916A04811509F461C1C0915C02D09132
:103A50005D024EDE8C1B9D0BC29708F47CC048DED5
:103A600080935C0290935D0288E692E08093660208
:103A7000909367028091EC04811509F47BC18091D9
:103A80006F0490E088599D4F80936602909367027F
:103A900060E089E095E0D2DA60E083E095E0CEDA9C
:103AA000809145050E94B10F823009F44BC108F0A6
:103AB0003DC1811143C160E08DEF94E0BFDA60E069
:103AC0008EED94E0BBDAC09141058C2F827209F42F
:103AD00045C18CED94E060E0A0DA8C2F817109F48F
:103AE00040C188ED94E060E098DA8C2F847409F48A
:103AF0003BC184ED94E060E090DAC87809F437C106
:103B00008DEC94E060E089DA60E080ED94E085DAA5
:103B100060E08FEC94E092DA0E949613C82F89EC53
:103B200094E0C1FD02C087EC94E060E076DA85ECB9
:103B300094E0C0FD02C083EC94E060E06EDA8DEBAF
:103B400094E0C2FD02C08BEB94E060E066DA60E0D6
:103B50008FEB94E062DA8091640290916502892B88
:103B600009F4BAC080916A04811509F4B5C0809146
:103B700068048111B1C002DD8091640290916502F8
:103B8000009709F4A9C0C82FC170D0E010E080FDF3
:103B90000FC041E050E01F5FEA01012E02C0CC0FD0
:103BA000DD1F0A94E2F79E0128233923232B99F382
:103BB0008091700480FF2EC1912F990F990F990F5A
:103BC000392F395F80E023E0909302018093050153
:103BD000309303012093060124E630E047E050E0F3
:103BE00060E071E088E70E94B332892B09F074C06D
:103BF00080E2189FA00111248091700480FF1CC1F5
:103C0000ECE3F2E080E211928A95E9F735E6632E63
:103C100031E0732E81E691E04C0169E671E0D30159
:103C2000ED913D01D4010D914D01040F152F111D92
:103C3000F0E0E45CFD4F80E090E027E0B22EB81A9F
:103C4000CC24C394082E01C0CC0C0A94EAF7980146
:103C500028593D4F2901E12CD201FD902D01FC2076
:103C60002B2D2E19277030E0AF2D022E01C0AA0F88
:103C70000A94EAF7DA2E3195219531092770332716
:103C800001C0F6942A95EAF7DF282081D22AD08253
:103C9000E3942E2D283001F7019631968830910556
:103CA00061F66615770509F0BACF04E610E020E268
:103CB0004CE352E060E488E70E946B33892B61F4A7
:103CC000C095D0958091640290916502C823D92354
:103CD000C0936402D0936502809169048115B1F0AC
:103CE0000E945614C0916B04D0916C04E0916D0455
:103CF000F0916E04DC01CB018C1B9D0BAE0BBF0B56
:103D00008F3F9F4FAF4FBF4708F45ADCDF91CF91F1
:103D10001F910F91FF90EF90DF90CF90BF909F90F9
:103D20008F907F906F905F904F900895833071F0E7
:103D3000843081F060E08FED94E0C0CE60E087EFEA
:103D400094E0BCCE60E081EF94E0B8CE60E08BEE12
:103D500094E0B4CE60E085EE94E0B0CE8AED94E0DD
:103D6000BACE86ED94E0BFCE82ED94E0C4CE8BEC6B
:103D700094E0C8CEC0913A02D0913B02B9DC8C1BD2
:103D80009D0B8536910580F0C0913902D0E0B0DC02
:103D900080933A0290933B02CE0101966AE070E074
:103DA0000E94B3358093390280913902582F550F04
:103DB00040E0425F5A4F2091640230916502A8E6CC
:103DC000B2E080E090E001E010E0FA01E80FF91FB6
:103DD000E4916D91E617A1F0BD0161507109EB010D
:103DE000E883BC01E5E076956795EA95E1F7E8019F
:103DF00002C0CC0FDD1F6A95E2F7BE012C2B372BDA
:103E00000196811562E0960701F7209364023093D2
:103E10006502A1CE20E2129FC0011124880F492F14
:103E2000441F550B5195242F912F9295990F907601
:103E3000392F315E842FC8CE48595D4F04E610E01B
:103E400020E230E037CF54DC9C0190913B0580911B
:103E50003C05982B21F0209390043093910490918D
:103E60003D0580913E05982B21F020938E043093E0
:103E70008F04E0911405F0911505309759F00680F4
:103E8000F781E02D309731F082E08093390589E3A6
:103E900095E009950895611509F448C0E82FED5C97
:103EA000E33150F4F0E0EC5BF94C0C94C6350E9421
:103EB0005113819580933C05C6CF0E945113FACFD0
:103EC0000E945113819580933B05F6CF0E945113B8
:103ED000FACF0E94711380933D05EECF0E947113BB
:103EE0008195F9CF0E947113819580933E05E4CFAF
:103EF0000E947113FACF815D990B21E001C0220F5E
:103F00008A95EAF780913A05822B80933A05D4CFBF
:103F100080913805816080933805CECF8091380537
:103F20008260F9CF809138058460F5CF40913B05E0
:103F30008D3C59F480913C0587FF0DC010923C05E3
:103F4000411559F41092370508C08E3C81F48091D8
:103F50003C0518169CF3411581F080913D05909128
:103F60003E05892B09F0A8CF10923605A5CF8F3CCE
:103F700041F447FFF0CF10923B0580913C0581153D
:103F8000E0CF803D19F41416B4F3E5CF90913D05D0
:103F9000893D29F41916FCF610923D05DCCF8A3DC7
:103FA00019F497FFD8CFF8CF90913E058B3D29F4B7
:103FB00097FFD1CF10923E05CECF8C3D19F4191644
:103FC000CCF3C9CF982F915D983078F4815D990B2F
:103FD00021E001C0220F8A95EAF7822F8095909107
:103FE0003A05892380933A05B6CF8D3D31F480910F
:103FF00038058E7F80933805AECF8E3D21F48091B9
:1040000038058D7FF7CF8F3D09F0A5CF809138051A
:104010008B7FF0CFCF93C82F8115D1F08450813A98
:1040200090F580915001813021F48091470587FD02
:1040300011C0E6EFF1E08081C817F9F0319681E018
:10404000EC3FF807C1F78C2F0E94F7130E94E0168F
:10405000CF910895EC2FE695E695E695F0E0E450D3
:10406000FE4F828190E04C2F477021E001C0220F6B
:104070004A95EAF78223892B31F38C2F0E942B1467
:104080000E94E016E0CF8C2F805E883060F4C7700D
:1040900081E001C0880FCA95EAF7C0914105C82B9D
:1040A000C0934105D3CF8C2F855A833030F48C2FA9
:1040B0008452990B0E94A913CBCFEC2FE85AEB3115
:1040C00050F4F0E0EE0FFF1FE454FE4F8081918129
:1040D0000E94D013BDCF8C2F8D5C833108F0B8CFF8
:1040E00061E08C2FD8DEB4CF811569F1982F945000
:1040F000913A20F40E942B140C94E016982F905EB5
:10410000983058F4982F81E091FD84E090FD880F5D
:1041100092FD82950E94CA10EFCF982F955A933046
:1041200020F480E090E00C94A913982F985A9B31CA
:1041300020F480E090E00C94D013982F9D5C933194
:1041400010F460E0A8CE08951F93CF93DF93182F4B
:10415000C0E5D0E0893311F0CAE0D0E0812F5ADF0A
:104160008FE99FE00197F1F700C000002197C1F7A8
:10417000812FBADFDF91CF911F9108950F931F9385
:10418000CF9380E0CAEA9091C6042091C504291714
:1041900009F441C0E92FF0E0E953FB4F208127FBF0
:1041A000002700F92F779F5F93709093C60480914A
:1041B000C4048F5F8093C4042130F8F480914505D6
:1041C0000E94B10F8130A9F40E9442178DE191E065
:1041D000801B910B8C011EDF8FE39CE90197F1F7A7
:1041E00000C00000802F80DF81E00E944B1781E03B
:1041F000CACF8C2F801BA8DFFACFC9F78091450565
:104200000E94B10F823011F480E5F4CF8EE40111E9
:10421000F2CF8BE4F0CFCF911F910F9108951092C0
:10422000410580915001813019F58091470587FF44
:104230001FC0EEEFF1E08EE111928A95E9F780E080
:1042400090E00E94A91380E090E00E94D0131092A9
:1042500049050E94E016E9E3F5E086E011928A95AF
:10426000E9F7109237051092360510923805EBCD1C
:10427000E6EFF1E086E0E0CFD2DF88E19AE00FB62A
:10428000F894A895809360000FBE90936000FFCFD4
:10429000AAE2B0E0EEE4F1E20C947F358FE192E027
:1042A000FC0101962091F100208322E087329207E1
:1042B000B9F780912002893009F459C0C8F48230DE
:1042C00009F4B7C0833009F486C0813089F1809148
:1042D000E80083FFEBC080911F02909120029A308A
:1042E00008F0E4C0E92FF0E0E95AF94C0C94C63527
:1042F0008A3009F48DC08B3051F780911F028132D2
:1043000031F78091230290912402892B01F780914B
:10431000E800877F8093E8000E94181581E0909163
:104320002102911101C080E08093500178DFCFCF4E
:1043300080911F02813A59F68091E800877F80932F
:10434000E8008091230290912402892B61F060E0C3
:1043500080E090E070E00E948E148091E8008B77FE
:104360008093E800B4CF68E087E292E0F3CF8091D9
:104370001F02813209F0ABCF809123029091240279
:104380008D7F892B09F0A3CF8091E800877F8093F0
:10439000E8008091E80082FF19C02091F30080912D
:1043A000F200922F029731F48091F100813011F0E8
:1043B000863021F48091F10080934F018091E800D4
:1043C0008B778093E8000E94181581CF8091930429
:1043D0008111DFCF7CCF80911F02813A09F077CF26
:1043E0008091230290912402892B09F070CF809153
:1043F000E800877F8093E8008091E80080FFFCCF91
:10440000809150018093F1008091E8008E77D9CFA0
:1044100080911F02813209F05ACF8091E800877F96
:104420008093E8000E9418158091220280934E012B
:104430004ECF80911F02813A09F049CF8091E80068
:10444000877F8093E8008091E80080FFFCCF809117
:104450004E01D8CF803889F0823841F5809123020F
:104460008F70873018F58093E9008091EB0085FB11
:10447000882780F91092E90006C080917204880FA5
:1044800090911C02892B9091E800977F9093E8000F
:104490008093F1001092F1008091E8008E7723C0A4
:1044A000811116C080912102813011F18091E800C4
:1044B00083FF0AC08091E800877F8093E8008091A5
:1044C000EB0080628093EB00AA96E3E00C949B35AE
:1044D000823061F780912102811581F01092E9000C
:1044E0008091E800877F8093E8000E941815DECF56
:1044F000933009F080E080937204F0CF8091230222
:104500008F70282F2150263088F68093E900209163
:10451000EB0020FFE3CF933031F48091EB00806219
:104520008093EB00DBCF9091EB0090619093EB00D8
:1045300021E001C0220F8A95EAF72093EA00109249
:10454000EA008091EB008860EBCF8111AFCF8091C2
:1045500021028F77182F8091E3008078812B809340
:10456000E3008091E800877F8093E8000E9418159F
:104570008091E80080FFFCCF8091E3008068809309
:10458000E30083E0111101C082E0809393048ECF99
:104590008058823008F08ACF8091210290912202C7
:1045A0008C3D23E0920791F583E08A838AE2898338
:1045B0004FB7F894DE01139620E03EE051E2E32F7E
:1045C000F0E050935700849120FF03C082958F70D4
:1045D0003F5F8F708A30C0F0895C8D931D922F5F92
:1045E000243169F74FBF8091E800877F8093E8000E
:1045F0006AE270E0CE0101960E948E148091E8007C
:104600008B778093E80052CF805DE7CF292F30E091
:104610002330310509F44DC078F52130310509F416
:104620007CC08BE590E0E8ECF1E02230310509F048
:104630003DCF2091E800277F2093E80020912502BC
:10464000309126028217930708F49C0140E021155F
:10465000310509F067C0411165C08091E80082FD15
:10466000CDCF80919304811549F2853039F2809144
:10467000E80083FFF2CFC2CF809123029091240201
:1046800021323105D9F12232310509F00FCF8330C3
:10469000910508F00BCFFC01EE0FFF1FEB5AFE4F08
:1046A0000190F081E02D8E5A9E4FDC018C9190E0BC
:1046B00011C0282F30E0813089F022303105B1F06F
:1046C000232B09F0F3CEEFE5F2E0E4918E2F90E09A
:1046D000EFE5F2E0009709F4E9CEABCFE3E4F2E0D6
:1046E000E4918E2F90E0E3E4F2E0F4CFE5E3F2E032
:1046F000E4918E2F90E0E5E3F2E0ECCF833091057A
:1047000008F0D4CE880F991FFC01E55AFE4F0190A6
:10471000F081E02D89E090E08CCF82E190E0E3E24F
:10472000F2E087CF80919304811509F467CF85303B
:1047300009F464CF8091E80083FD60CF8091E800A8
:1047400082FD8BCF8091E80080FF81CF4091F30004
:104750008091F200942F2115310519F088309105D0
:1047600050F041E0089709F040E08091E8008E7732
:104770008093E8006CCF44914093F1003196215032
:1047800031090196E8CF803809F090CE8091E80099
:10479000877F8093E80080911D028093F1007CCE9A
:1047A000811184CE80912102182F823008F07ECEB4
:1047B0008091E800877F8093E80010931D020E949B
:1047C00018151115F9F084E08093930442E061EC30
:1047D00081E00E94E81442E261EC84E00E94E81467
:1047E00042E261EC82E00E94E81442E260EC83E085
:1047F0000E94E81480919304843051F482E0809305
:10480000510154CE8091E30087FDDDCF81E0DCCF04
:1048100081E0F5CFFF920F931F93CF93DF93C62FC5
:10482000D42FF22E8115B1F060933F050E94781BC2
:10483000809337029093380281E0C1FD84E0C0FD8F
:10484000880FC2FD82950E943417CDB7DEB7E5E030
:104850000C94993580913F05681331C0009137025F
:10486000109138020E94781B801B910B883C9105A7
:1048700030F51D2F105ECD17A1F0C77001E0802F1D
:1048800001C0880FCA95EAF70E943D17183048F416
:104890008D2F877001C0000F8A95EAF7802F0E9444
:1048A00034178F2D51DC81E0D1FD84E0D0FD880FDD
:1048B000D2FD8295183048F60E943D17C6CF81E0A0
:1048C000C1FD84E0C0FD880FC2FD8295F5CFA4E054
:1048D000B0E0EDE6F4E20C9475357C01FC018481D6
:1048E000811529F161E0C7010E941C1A8C01F701B2
:1048F00000348EE7180719F58581811549F08091FC
:1049000045058115C1F084FF16C084E00E94D20FD6
:1049100080914605877059F0F7018581811539F03E
:104920008091480582FF03C082E00E948D1024968A
:10493000EDE00C94913584E00E94C90FE9CF8581A8
:10494000811509F4F8C0980137572038310508F06F
:104950009DC40031E8F66EE771E080E090E00E94CF
:104960006F1A8111D5CFA12CB12C450101111BC0AB
:1049700089829A82AB82BC828E010F5F1F4FC80171
:104980000E947C1A902EB12E813010F209F06BC07B
:10499000C8010E947C1A282F8130D1F4C8010E94DE
:1049A0007C1AD2DB1BC08FE7881681E09806A10431
:1049B000B10409F4ADCFB401C5010E946F1A9FEF95
:1049C000891A990AA90AB90A8111EDCF0150CECFEF
:1049D000823059F4C8010E947C1A1CDB8FE39CE9E9
:1049E0000197F1F700C00000CACF833029F4C80155
:1049F0000E947C1A79DBF2CF843091F4C8010E94C6
:104A00007C1A282FC12CD12C9AE0A92E422F50E0DD
:104A1000CA010E94D335892B61F4C114D104C9F4B1
:104A20008FE39CE90197F1F700C000002111A7CFA7
:104A30006FCFAC9CC001AD9C900D11244053510927
:104A40006A01C80ED91E892D9B2D0E947C1A282F21
:104A5000DDCF8FE99FE00197F1F700C0000081E012
:104A6000C81AD108DACFE82FF0E0EC55F14E949156
:104A7000792E282F26952695269530E0F901EC56BB
:104A8000F14EC4908770D12C082E02C0D594C794E3
:104A90000A94E2F7F901EC57F14EA490B12C082EDC
:104AA00002C0B594A7940A94E2F72C58314EF9014C
:104AB0008490912C02C0959487948A95E2F7C0FE69
:104AC00008C081EEA7DA8FE39CE90197F1F700C0F7
:104AD0000000A0FE08C086EE9DDA8FE39CE90197F6
:104AE000F1F700C00000872D95DA8FE39CE901976C
:104AF000F1F700C00000872DF7DA8FE39CE90197FA
:104B0000F1F700C00000A0FE08C086EEEDDA8FE3EA
:104B10009CE90197F1F700C00000C0FE08C081EEDB
:104B2000E3DA8FE39CE90197F1F700C0000080FE13
:104B300026CF8CE236CFF801E851FC47E730F1058B
:104B400008F096C3EF59F94C0C94C63526E241EEB5
:104B500061EE60DEDDCE27E245EE65EEFACF26E2BD
:104B600041EE60EEF6CF27E245EE64EEF2CF26E2AC
:104B700041EE62EEEECF27E245EE66EEEACF28E2A6
:104B800041E0EBCF809147058160809347056091BC
:104B900047057091480584E090E00E942E363FDB87
:104BA000B7CE80914805886080934805F0CF80910A
:104BB00047058260EACF809147058460E6CF809107
:104BC00047058860E2CF809148058160EDCF8091F4
:104BD00048058260E9CF809147058061D6CF8091FA
:104BE00047058062D2CF809147058064CECF17DB26
:104BF000809147058068C9CF809147058C60C5CFFB
:104C0000809148058360D0CF809147058E7FBDCFCE
:104C100080914805877FC8CF809147058D7FB5CFAC
:104C2000809147058B7FB1CF80914705877FADCFBE
:104C3000809148058E7FB8CF809148058D7FB4CF95
:104C4000809147058F7EA1CF809147058F7D9DCFB5
:104C5000809147058F7B99CFE2DA809147058F7766
:104C600094CF80914705837F90CF809148058C7FBA
:104C70009BCF90914705892F8B7F92FF8460877F20
:104C800092FF886082CF80914805982F909590FB85
:104C900080F990FB81F988CF90914705892F8F7B10
:104CA00096FF806472CFBBDA90914705892F97FBFE
:104CB00087F980586ACF61E08EE090E00E94143658
:104CC00066CF60E0F9CF90914705892F8F7E94FFE2
:104CD00080615BCF90914705892F8E7F90FF816027
:104CE00054CF90914805892F877F93FF88605CCFD0
:104CF00089E2B9C289E2C7C207379CE71907F1F018
:104D000008379CE7190749F19801205E32452032A7
:104D1000310548F5811139C00F7181E090E002C082
:104D2000880F991F0A95E2F78C01682F83E090E0C5
:104D30000E941436802F0E94C30FEACD811549F0DE
:104D400081E00E94C90F43E062E081E00E944610CA
:104D5000DFCD81E00E94D20FF6CF811511F082E005
:104D6000F0CF82E0F7CF811571F10B359CE7190781
:104D700009F10C359CE7190791F00A359CE71907F2
:104D8000B9F001309CE71907E9F003309CE71907F7
:104D900099F001151C47B9F442DA0E947D14809104
:104DA0004805002482FF0394802D0E946C16B0CD2C
:104DB00081E0FBCF80E0F9CF6FEF7FEF80E090E004
:104DC0000E942E3659DAF70100811181811509F40C
:104DD00047C0C8010E94EE19D82E682FC8010E9452
:104DE000DD0FB8018D2D0E94E2190E94C611182F07
:104DF000A92EF701D580B680B2948FE0B8228091B9
:104E00004605877001F1CD2CD114F1F0892F807FF8
:104E1000803461F0812F805E8830A8F0892F807EF9
:104E2000803221F4123078F0B11469F08091480595
:104E300082FF09C082E00E948D1080914605877034
:104E4000CC24C3948111C12CEA2DE295EF708A2DF8
:104E5000803C08F067C0F0E0E859F94C0C94C63586
:104E6000C8010E941310D82EBCCF0A2D0F708031BC
:104E700010F00295007FD114B9F0011569F0812F6F
:104E8000805E883010F0111109C080914105802B9F
:104E9000809341050E94E016812F3EC08091490514
:104EA000802B80934905F6CF812F1ED90115D1F1B2
:104EB000812F805E883010F0111104C0802F0E9475
:104EC000CA1006C00095809149058023809349054A
:104ED0000E94E01627C00A2D0F70807F803211F0EB
:104EE0000295007F113040F009F464C0D11409F438
:104EF0006FC0B11499F1D0CF8091480582FD2AC0CE
:104F0000D11461F0011539F080914105802B809317
:104F100041050E94E01680E07DD804C080E0E4D81E
:104F20000111CCCFC11409F4B6C08091460580FDB3
:104F3000B2C0F70115828695869586950E94C90FA5
:104F4000C701C5DC809146058695869586950E94A9
:104F5000D20FA1C0D11499F0B11004C0802F0E94CB
:104F60003417E0CF8B2D8130E9F690914205802FE8
:104F700089230817B9F2902B90934205D3CFB11033
:104F8000D1CF802F0E943D1790914205802F892319
:104F900029F0802F809589238093420590914305C5
:104FA000802F892309F4BECF802F80958923809399
:104FB0004305B8CF8B2DD11421F0863008F0B2CF45
:104FC000CDCF853008F0AECF802F0E943D17AACFFD
:104FD000B114D1F3193361F48FEF97EE23E08150D0
:104FE00090402040E1F700C00000812F7DD89ACF8B
:104FF0008FE39CE90197F1F7F6CF8695869583704C
:10500000813060F009F08ECF812F9A2D9370D110EE
:1050100002C080E090E00E94D01384CF812F9A2DAF
:105020009370D11002C080E090E00E94A9137ACF63
:105030006D2D812F0E944B1F75CF8370E1F5D1102C
:1050400028C0812F829586958770880F880F412F01
:105050004F70082E01C0440F0A94EAF7212F2071E7
:1050600014FF06C02FE001C0220F8A95EAF72095B1
:105070008A2D869586958370982F8230A1F0833093
:10508000B9F080914405913059F0242B82230E947D
:10509000C30F0E94961360E0C7010E941C1A47CC00
:1050A000842B822BF4CF242B809144058227EFCFD1
:1050B000822F842BECCFD11459F1A0FEEACF812F9F
:1050C000829586958770880F880F412F4F70082E24
:1050D00001C0440F0A94EAF7212F207114FF06C083
:1050E0002FE001C0220F8A95EAF720958A2D869538
:1050F00086958370982F823091F08330A9F080914B
:105100004505913049F0242B82230E94C60FC1CF60
:10511000823008F4BECFD3CF842B822BF6CF242B42
:10512000809145058227F1CF822F842BEECF8F709F
:10513000082FD11431F00E94C90F812F0E9434171B
:10514000A8CF812F0E943D17802F0E94D20FA1CFA0
:10515000123F81F170F4103FC9F0113F91F0D1146A
:1051600009F456C0B11409F450C0812F0E940A20DE
:1051700090CF133F29F1143F91F79091480592FD8C
:105180002CC08A2D8F71D11401F317C08B2DD1142F
:1051900079F0853008F07DCF8A2D8F71282F81E03E
:1051A00001C0880F2A95EAF7909145058927ADCF70
:1051B0008630F0CF8F71D110C8CF0E94C90F69CF50
:1051C00080E0D11409F4A1CF8A2D8F71982F81E04E
:1051D00001C0880F9A95EAF798CFD11459F08F71D2
:1051E00092FFEBCF982F990F990F990F936090939F
:1051F0004605E3CF81E00E948D108B2D823008F4AC
:1052000048CF82E00E948D1044CF8A2D8F71D5CF78
:10521000B114A1F0193369F48FEF97EE23E08150B8
:1052200090402040E1F700C00000812F0E947420D0
:1052300030CF8FE39CE90197F1F7F5CF8A2D8F717D
:1052400084CF06319CE7190709F056CD80914105BE
:105250008A7A91E0811101C090E090934005811518
:1052600009F446CD85E30E94F7130E94E01650CB67
:1052700006319CE7190709F03FCD80914005811563
:1052800009F438CD85E30E942B14EFCFF801E851E3
:10529000FC47E730F10508F455CC10923F05980122
:1052A00030572332310568F684E090E00E940036E2
:1052B0008093470590934805F801E150F047E232AA
:1052C000F10508F05FCCEC58F94C0C94C635809190
:1052D0008A05803170F480918905811551F0E09143
:1052E0004B0520914A0530918505409184052E1388
:1052F00001C00895BF0187E0E89FF0011124DF019C
:10530000A45BBA4F14968C911497811551F11196A4
:105310008C911197831325C08C91841322C015960C
:105320008C91159781111DC012968D919D91A09120
:105330008605B09187058A1B9B0B883C910588F4F4
:1053400080918A058F70806180938A05EE5AFA4FAA
:1053500080818F708061808384E895E0B8DA0C9456
:1053600083106F5F7F4FFB01E770C1CFADE0B0E00E
:10537000ECEBF9E20C9475358C0186E0F801DE0166
:10538000189601900D928A95E1F7F801F5808481D5
:1053900094E8892E95E0992E70908805711017C0B9
:1053A000811591F0F11409F40EC1C8010E94441A4C
:1053B000811509F408C187E0F801A4E8B5E001907F
:1053C0000D928A95E1F783DFFF24F39455C0D080D6
:1053D000A280B380C0908905209186053091870511
:1053E000A501421B530BC11409F4BDC0483C510533
:1053F00008F076C0811541F3809185059180E09099
:105400008A059E2D903108F057C0981214C08091E3
:1054100084058D1110C0F11049C08E2D8F708061F0
:1054200080938A0584E895E052DA80918A05F80134
:105430008683F12C21C0F11039C040E0692D8D2DFB
:105440000E94641040E0692D8D2D0E946410F82E9A
:105450008111EFCF888599850E94391A292F2295CD
:105460002F70903470F49F70223098F09115A9F04D
:10547000F8019681903188F48F2D2D96EDE00C94F3
:1054800091352A5F2F70223060F0C80120DAFC2CA1
:10549000F3CF911511F0811579F3805E883060F3B8
:1054A000F4CF803F48F3815F8330F9CF80918A0544
:1054B000816080938A05BDCF981237C080918405A2
:1054C0008D1133C0F11031C0E682C80100DA87E0E7
:1054D000F801A4E8B5E001900D928A95E1F774CF48
:1054E000E0908A059E2D903148F484E895E0EFD94C
:1054F000F40187E011928A95E9F79BCF811509F4B1
:1055000063CF90918505818198130FC080918405A8
:105510008D110BC0F11009C0E682C801D8D9F40181
:1055200087E011928A95E9F74FCFC8010E94441A8B
:10553000811509F448C0F11409F445C08E2D80325C
:1055400008F439CF809184059091850589839A83E9
:10555000AB82BC827D821E8280918A058F83CE01C0
:105560000196B5D928CF483C510508F0C1CF811527
:1055700009F42ACFF11439F19091850581819813AE
:1055800018C0809184058D1114C080918A0580FD1A
:105590009ECF803108F49BCF8683807F803F09F4C3
:1055A00094CF8681982F907F905F8F70892B868310
:1055B0008CCFC8010E94441A8111FDCE80918A05CA
:1055C000816080938A05C80182D9FECEABE1B0E04C
:1055D000ECEEFAE20C947E354E8B5F8B688F798F00
:1055E0008A8F192F9B8F9111109249051D8A86E091
:1055F000FE017696DE011F9601900D928A95E1F7E5
:105600000A8D011561F00B8B1C8B61E0CE010F96AA
:105610000E941C1A61E0CE010F960E941C1A0B8B8F
:105620001C8B87E0FE013F96DE01189601900D92DB
:105630008A95E1F7CE01089699DE81112EC020915E
:105640004A0530914B0587E0AE01485F5F4FFA0194
:1056500047505109DA0101900D928A95E1F78C8546
:105660008115D9F0822F90E08395877090E0AC018E
:1056700034171506E1F097E0929FD0011124A45B46
:10568000BA4F9E012F5F3F4FF90101900D929A95FD
:10569000E1F740934A050E94831080914B05909159
:1056A0004A05891311C06B96E4E00C949A350E9468
:1056B0000F2110924A0510924B05E4E8F5E087E0CF
:1056C00011928A95E9F7E9CF27E0829FC001112462
:1056D000845B9A4F4BDE811531F380914B0590919D
:1056E0004C050196877080934B05D7CFA6E0B0E0BC
:1056F000ECE7FBE20C947E350E94781B8C018091D4
:10570000F2049091F3048017910771F019821A82C4
:105710000E94781BBC0149815A8180E090E056DFED
:105720000093F2041093F3042696E4E00C949A3567
:10573000CDB7DEB7A2970FB6F894DEBF0FBECDBFD0
:1057400085B7806885BF85B7806885BF84B7877F48
:1057500084BF0FB6F894A89580916000886180930B
:105760006000109260000FBE80E890E00FB6F894E1
:1057700080936100909361000FBE81E0809351019E
:1057800082EB92E18093F2019093F3010E94B715AE
:105790000E9468158091E20084608093E200789412
:1057A00080919304811599F08091E9001091EC00AB
:1057B0008F7010FB112717F9182B1092E9008091B8
:1057C000E80083FD0E9448211F701093E90082E0E9
:1057D00084BD93E095BD9AEF97BD80936E001092C3
:1057E000EE041092EF041092F0041092F1040E9463
:1057F0009A1A811102C00E942C1B8091D8008061EE
:105800008093D8008AE18A95F1F700C08091D90091
:10581000182F117080FD04C00E94B71510929304D8
:105820001093EC041093ED04109307011111F5D7B8
:10583000E3ECF4E088E011928A95E9F78091ED04B9
:1058400091E0282F292720938A0490938D048111B9
:1058500006C084EF8093090185EF8093080160E022
:1058600080E00E94EE1261E080E00E94EE128FE87C
:1058700091E00197F1F700C0000010E080918D04E5
:10588000181708F490C08091ED0490E0811101C0D8
:1058900095E09093E10485E0891B8093D3045BE756
:1058A000E52E51E0F52E00E811E0F70181917F012E
:1058B0008F3F11F00E94B4120E151F05B1F700E8DA
:1058C00011E0F80181918F018F3F11F00E94B41215
:1058D00081E006381807A9F7E7EDF4E08AE01192B5
:1058E0008A95E9F7E2EEF4E08AE011928A95E9F709
:1058F00080E090E00E940036833E9E4F21F40E949B
:105900009A1A811129C063EE7EEF80E090E00E9438
:105910002E3660E082E090E00E94143681E08093B1
:10592000440561E083E090E00E94143660E074E199
:1059300084E090E00E942E360E942C1B60E070E014
:10594000AB018FE090E00E94263660E070E0AB0192
:1059500083E190E00E94263682E090E00E94F835D4
:1059600080937D0484E090E00E9400368093470598
:10597000909348050E948D1B8FEF96E721E08150A0
:1059800090402040E1F700C000000E948D1B8091F4
:10599000D70480FF1AC06FEF7FEF80E090E00E9495
:1059A0002E360E947D1460E0812F0E940E13082F76
:1059B00061E0812F0E940E13E12FF0E0E557FB4FCD
:1059C000880F802B80831F5F59CF83E090E00E9477
:1059D000F8350E94C30F8091EC04811509F4DFC0F3
:1059E00080E293E09093700480936F0489D56BE01C
:1059F00070E089E69EE10E94B11A8115E9F180917B
:105A0000700465E070E081FDCDC084E69EE10E94F7
:105A1000B11A811589F16DE070E082E59EE10E9486
:105A2000B11A811549F10E945614DC01CB01805A4C
:105A30009541AF4FBF4F80936B0490936C04A0933C
:105A40006D04B0936E04E8E6F2E0DF0180E092E0DE
:105A50001D920197E9F7E0936602F09367028FEFDA
:105A60009FEF809364029093650281E080936A04C3
:105A700080936904109268048091EC04811101C044
:105A8000CFD68AE091E0809314059093150541E00C
:105A9000842E912C7E018FEFE81AF80A80919304EE
:105AA00000E110E432E1D32E853009F4D5C00E9424
:105AB0008D1B2EE7A22E24E0B22E87ED94E089A361
:105AC0009AA328E834E0FC01D5019D9180812A1732
:105AD0003B0709F4CBC031969817B9F32090EC043A
