:1000000064C700007FC700007DC700000C940F2C60
:1000100079C7000077C7000075C7000073C70000EC
:1000200071C700006FC700000C94C3280C94AB2963
:100030000C94601367C7000065C7000063C7000029
:1000400061C700005FC700005DC700005BC700001C
:1000500059C700000C949F2855C7000053C70000E3
:1000600051C700004FC700004DC700004BC700003C
:1000700049C7000047C7000045C7000043C700004C
:1000800041C700003FC700003DC700003BC700005C
:1000900039C7000037C7000035C7000033C700006C
:1000A00031C700002FC700002DC70000050109025D
:1000B000A10185020901A1000509190129081500FE
:1000C0002501950875018102050109300931158165
:1000D000257F95027508810609381581257F9501D0
:1000E00075088106050C0A38021581257F95017572
:1000F000088106C0C005010980A101850319012AF4
:10010000B700150126B700950175108100C0050CD8
:100110000901A101850419012AA002150126A002E6
:10012000950175108100C005010906A1018506052C
:100130000719E029E71500250195087501810205D9
:1001400007190029EF1500250195F07501810205B9
:10015000081901290595057501910295017503910D
:1001600001C00660FF0961A1010962150026FF00B8
:100170009520750881020963150026FF00952075FA
:10018000089102C005010906A101050719E029E748
:1001900015002501950875018102950175088101F9
:1001A0000507190029FF150026FF0095067508812F
:1001B000000508190129051500250195057501910E
:1001C00002950175039101C009025B00030100A0C3
:1001D000FA090400000103010100092111010001D5
:1001E00022440007058103080001090401000203FD
:1001F00000000009211101000122220007058203ED
:100200002000010705030320000109040200010387
:1002100000000009211101000122B6000705840336
:10022000200001120100020000000832FC870201D8
:1002300000010200010C0353006F0066006C0065B2
:100240000000001A034A006F007300650066004159
:1002500000640061006D00630069006B0000000431
:1002600003090435001E001F002000210022002980
:100270000014001A000800150017002B00040016D7
:1002800000070009000A00E1001D001B000600191C
:10029000000500E300E200777C2A002C00A8004C57
:1002A00000270026002500240023002A0013001246
:1002B000000C0018001C00340033000F000E000D6D
:1002C000000B00E500380037003600100011002850
:1002D00000E600787C4C002C00AE003A003B003C6D
:1002E000003D003E003F0035001E001F00200021A1
:1002F00000220001001E021F022002210222020130
:10030000002E002D002E022F0230020100010001FC
:10031000000100010001004500440043004200418B
:1003200000400001002700260025002400230031A2
:100330000227022602250224022302010031003393
:1003400002330030002F0001000100010001000114
:100350000001000100010001000100010001000195
:1003600000490046006500000000000100E200E0D6
:1003700000E100E300390001001D011B0106011925
:100380000100000100010001000100010001000165
:1003900000010001000100010001002A0000004DE1
:1003A0000052004A004B0001004C004F0051005029
:1003B000004E0001000000000000000000000001ED
:1003C0000001000100010001000100000000000028
:1003D00000000000000000007C00000000000000A1
:1003E000000000000000001D700000000000000080
:1003F00000000000000000000000000100010001FA
:1004000000010001000000000000000000000000EA
:1004100000000000000000000000000000000000DC
:10042000000000A900A800AA00000000000000AB26
:1004300000AE00AC0000000100010001000100015D
:1004400000000020202020200043415053210020A4
:100450004E6F6520000A0A002020202000434D44F2
:1004600020000A0A002020202000414C54200020B7
:100470002020200043544C20002020202000534600
:100480005420004D4F44530A000A0A003F3F3F20CA
:10049000200041646A7374005261697365004C6F97
:1004A00077657200426173650A000A004C41594544
:1004B00052000A00000000000000000000000000E0
:1004C0000080C0E0F0F0F8F8FCFCFCF8F8F0E0C0C8
:1004D00080000000000000000000000080C0E0F884
:1004E000FCFEFFFFFFFFFFFFFFFFFFFFFFFFFFFE21
:1004F000FCF8E0C000000000000000C0F0FCFEFFBF
:10050000FFFFFF3F1F0F87C3E3F1F9F9F1E3C70FC7
:100510001F3FFFFF0000000000000001070F1F3F0A
:100520007FFFFCF8F0E1C3C7CFCFCFCFC7C3E1F067
:10053000F8FCFFFF000000000000000000000000C9
:1005400000000103070F1F3F3F7F7F7F3F3F1F0FCB
:100550000703010000000000000000000000000090
:100560000000000000000080C0E0E0E0C08000006B
:10057000000000000000000000000000000000007B
:100580000080C0E0F0F8FCFFFFFFFFFFFFFFFCF87A
:10059000F0E0C0800000000000000000000000004B
:1005A0001E3F7F7F7FFFFFFFFFFFFFFFFFFFFF7FFC
:1005B0007F3F1E000000000000000000000000005F
:1005C000000000000080C1E3E7F7FFF7E7E3C18028
:1005D000000000000000000000000000000000001B
:1005E000000000000003070F0F1F1F1F0F0F07035E
:1005F00000000000000000000000000000000000FB
:100600000000000000000080C0E0F0E0C0800000BA
:1006100000000000000000000000000000000000DA
:10062000000080C0E0F0FBFFFFFFFFFFFFFBF0E0FA
:10063000C08000000000000000000000000000007A
:100640000E1F3F7FFFFFFFFFFFFFFFFF7F3F1F0EDC
:10065000000000000000000000000000000000009A
:100660000000000000000103070F0F070301000056
:10067000000000000000000000000000000000007A
:10068000000000000000000000000000000000006A
:10069000000000000000000000000000000000005A
:1006A000000000000000000000000000000000004A
:1006B000000000000000000000000000000000003A
:1006C000000080C0E0F0F0F8F8FCFCFCF8F8F0E086
:1006D000C000000000000000000000000080C0E03A
:1006E000F8FCFEFFFFFFFFFFFFFFFFFFFFFFFFFF25
:1006F000FFFEF8E00000000000000000C0F0FCFE7B
:10070000FFFFFFFF3F1F0F87C3E3F1F9F9F1E3C7D5
:100710000F1F3FFF000000000000000001070F1F37
:100720003F7FFFFCF8F0E1C3C7CFCFCFCFC7C3E116
:10073000F0F8FCFF000000000000000000000000D6
:100740000000000103070F1F3F3F7F7F7F3F3F1FD8
:100750000F0703010000000000000000000000007F
:10076000000000000000000080C0E0E0E0C0800069
:100770000000000000000000000000000000000079
:10078000000080C0E0F0F8FCFFFFFFFFFFFFFFFC70
:10079000F8F0E0C0000000000000000000000000D1
:1007A000001E3F7F7F7FFFFFFFFFFFFFFFFFFFFF79
:1007B0007F7F3F1E000000000000000000000000DE
:1007C00000000000000080C1E3E7F7FFF7E7E3C1A6
:1007D0008000000000000000000000000000000099
:1007E00000000000000003070F0F1F1F1F0F0F075F
:1007F00003000000000000000000000000000000F6
:10080000000000000000000080C0E0F0E0C08000B8
:1008100000000000000000000000000000000000D8
:1008200000000080C0E0F0FBFFFFFFFFFFFFFBF0D8
:10083000E0C0800000000000000000000000000098
:1008400000000E1F3F7FFFFFFFFFFFFFFFFF7F3F07
:100850001F0E00000000000000000000000000006B
:10086000000000000000000103070F0F0703010054
:100870000000000000000000000000000000000078
:100880000000000000000000000000000000000068
:100890000000000000000000000000000000000058
:1008A0000000000000000000000000000000000048
:1008B0000000000000AE00AF07087F0807003E6B95
:1008C0004F6B3E00C194B094C1001C3E7C3E1C00A6
:1008D000183C7E3C18001C577D571C001C5E7F5E38
:1008E0001C0000183C180000FFE7C3E7FF000018D9
:1008F00024180000FFE7DBE7FF0030483A060E004F
:10090000262979292600407F05050700407F052517
:100910003F005A3CE73C5A007F3E1C1C0800081C64
:100920001C3E7F0014227F2214005F5F005F5F0087
:1009300006097F017F00006689956A00606060603B
:10094000600094A2FFA2940008047E040800102016
:100950007E20100008082A1C0800081C2A0808002D
:100960001E10101010000C1E0C1E0C0030383E38EB
:100970003000060E3E0E06000000000000000000E1
:100980005F000000000700070000147F147F1400C0
:10099000242A7F2A12002313086462003649562055
:1009A0005000000807030000001C22410000004125
:1009B000221C00002A1C7F1C2A0008083E08080090
:1009C000008070300000080808080800000060601F
:1009D00000002010080402003E5149453E0000423C
:1009E0007F4000007249494946002141494D33008A
:1009F0001814127F10002745454539003C4A4949E3
:100A0000310041211109070036494949360046495C
:100A100049291E00000014000000004034000000BE
:100A2000000814224100141414141400004122146C
:100A300008000201590906003E415D594E007C1232
:100A400011127C007F49494936003E414141220054
:100A50007F4141413E007F49494941007F090909E1
:100A600001003E41415173007F0808087F000041AA
:100A70007F4100002040413F01007F0814224100D7
:100A80007F40404040007F021C027F007F0408102E
:100A90007F003E4141413E007F09090906003E4179
:100AA00051215E007F091929460026494949320033
:100AB00003017F0103003F4040403F001F204020D2
:100AC0001F003F4038403F006314081463000304D4
:100AD000780403006159494D4300007F41414100C2
:100AE000020408102000004141417F00040201027D
:100AF000040040404040400000030708000020542C
:100B0000547840007F284444380038444444280046
:100B1000384444287F0038545454180000087E0993
:100B2000020018A4A49C78007F0804047800004404
:100B30007D4000002040403D00007F102844000020
:100B400000417F4000007C04780478007C080404A5
:100B50007800384444443800FC1824241800182431
:100B60002418FC007C080404080048545454240051
:100B700004043F4424003C4040207C001C204020D2
:100B80001C003C4030403C004428102844004C905D
:100B900090907C004464544C4400000836410000AE
:100BA0000000770000000041360800000201020446
:100BB00002003C2623263C0000000000000000004C
:100BC0008080E0F0F0FC70FCF07CF0FC70FCF0F059
:100BD000E0808000000000000000000080808000B5
:100BE0000000808000000000008080008080000005
:100BF0000080800000000000808080808000808075
:100C000000000000000000000000000000000000E4
:100C100000000000000000000000000000000000D4
:100C200000000000000000000000000000000000C4
:100C300000000000000000C0F0F8FC3E1E060100AD
:100C400000007F4141417F007F4141417F000080A2
:100C5000C0E07E5B4F5BFEC00000C000DCD7DEDE84
:100C6000DED7DC00C0000000000000000000000033
:100C70000000000000000000000000000000000074
:100C8000AAAAFFFFFFFFE0DFDF00DFDFE0FFFFFFDB
:100C9000FFAAAA000000000000003E7FC1C1C17F82
:100CA0003E00FFFF0F3C783C0FFFFF00FFFF1C3EA4
:100CB00077E3C10000000000FFFF19191900FDFDD6
:100CC00000FEFC060600FEFC0606FCFC0606FEFC1A
:100CD000001E7CE0780C78E07C1E0064F692927E28
:100CE000FC00FEFC0606003C7ED2D2DE4C0000007A
:100CF00000000000000000030F1F3F3C7870600000
:100D000000007F4141417F007F4141417F00307BB6
:100D10007F7830202030787F3B0003000F7F0F0F5B
:100D20000F7F0F0003000000000000000000000023
:100D300000000000000000000000000000000000B3
:100D400000000307071F071F071F071F071F0707CD
:100D5000030000000000000000000000000001038C
:100D60000200000000000000000000000000000081
:100D70000000000000000000000000000000000073
:100D80000000000000000000000000000000000063
:100D90000000000000000000000000000000000053
:100DA0000000000000000000000000000000000043
:100DB0000000000000000000000000000000000033
:100DC0000000000000000000000000000000000023
:100DD0000000000000000000000000000000000013
:100DE0000000000000000000000000000000000003
:100DF000000000000000000000DA0281FFD9F1DBF2
:100E000020A4A62EAF00A0C0D30000A1C8D300002C
:100E1000AED580A81F408D14200000000000000007
:100E200000000000000000000000000000000000C2
:100E300000000000000000000000000000007E0F25
:100E400000D4FFFFFFC70000007800000000000092
:100E500000002A2B28000000000000000000000015
:100E6000000000000029000000002C1E3420212278
:100E700024342627252E362D3738271E1F202122E1
:100E8000232425263333362E37381F04050607085A
:100E9000090A0B0C0D0E0F1011121314151617184A
:100EA000191A1B1C1D2F3130232D35040506070888
:100EB000090A0B0C0D0E0F1011121314151617182A
:100EC000191A1B1C1D2F3130354C11241FBECFEFBA
:100ED000DAE0DEBFCDBF11E0A0E0B1E0EEECFCE572
:100EE00002C005900D92A23FB107D9F725E0A2EF0D
:100EF000B1E001C01D92AD38B207E1F70E945F2357
:100F00000C94002E7DC8982F92959F7061F420E07C
:100F1000982F892F8695869511F02E5F982F892F0F
:100F20008695820F089524E0F4CF809346050895B6
:100F300080934705089521E001C0220F8A95EAF7C2
:100F400080914705822BF4CF21E001C0220F8A95C2
:100F5000EAF7822F8095909147058923E9CF292FC1
:100F60009A3090F5863080F590E036E0239F800D32
:100F7000911D112451E081FD54E080FD550F82FD4B
:100F8000529523E0969587952A95E1F7FC01EE0F9F
:100F9000FF1FE80FF91FE05EFA4F20E030E070E03D
:100FA0004191DF01CB01022E02C0969587950A94EC
:100FB000E2F78695880B8427852384278E932F5FFD
:100FC0003F4F2330310561F70895292F9A3070F58E
:100FD000863060F590E036E0239F800D911D11244E
:100FE000682F677023E0969587952A95E1F7FC01B5
:100FF000EE0FFF1FE80FF91FE05EFA4F40E050E0F0
:1010000080E0219130E0062E02C0369527950A94A3
:10101000E2F72170042E01C0220F0A94EAF7822B16
:101020004F5F5F4F4330510561F7089580E00895A9
:101030009091470521E030E0F90101C0EE0F8A955B
:10104000EAF7D90101C0AA0F6A95EAF7EA2B01C0B5
:10105000220F4A95EAF7892F8E23E81303C0892FC0
:10106000822B66CF2095822F8923FBCFE0914D05FF
:1010700090914C05E91302C080E008959F0157E06C
:10108000E59FF0011124E25BFA4F5181561306C02F
:101090005081581303C05581541305C02F5F3F4F33
:1010A000F901E770E7CF81E0089580914D05209127
:1010B0004C05281301C0089501968770FACF9091CE
:1010C00048058095892380934805282F277061F46F
:1010D000891751F090914A0592FF06C08695869532
:1010E000869532DF109248050895809143059091CE
:1010F0004B05892B909144059115C9F0892B90914E
:101100005001913021F49091490597FD11C096E06E
:1011100026EF31E040E09150F90150812F5F3F4FC1
:1011200051114F5F9111F7CF41111092440508956D
:101130009EE12EEF31E0EECF8095982F8091430510
:101140008923809343050895803E9105D1F1C8F429
:101150008133910509F481C048F48932910509F47D
:1011600071C08A32910509F47FC0089589339105D1
:10117000E1F082389105C9F08533910509F45DC02D
:101180000895843E9105D1F148F4823E910531F1F4
:10119000833E910541F181EE90E00895863E9105F0
:1011A000C1F1873E9105F1F1089520914905237021
:1011B00009F064C020914A0523FF14C089E290E041
:1011C00008952091490520FD45C030914A0530FF22
:1011D00009C024FD24C083EE90E0089520914905C4
:1011E00022FDF7CF08952091490522FD44C030919A
:1011F0004A0530FD43C024FFF5CF11C020914A05B8
:1012000021FFF0CF8091490584FD09C087EE90E071
:1012100008952091490523FFE5CF24FFF7CF80E013
:1012200090E008952091490523FD2BC030914A0597
:1012300031FFE1CF84EE90E008952091490525FF2C
:10124000D1CFBCCF2091490525FD1EC020914A0574
:1012500023FFC8CF89E390E008952091490526FF38
:10126000C1CF8AE290E008952091490526FFBACFC8
:1012700081E390E0089582EE90E0089580EE90E0A2
:10128000089586EE90E0089585E390E008959091AA
:10129000490592FF10C041E0282F2471243009F045
:1012A00040E031E0282F2871283009F030E0431762
:1012B00011F02CE0822793FF10C041E0282F247109
:1012C000243109F040E031E0282F2871283109F05D
:1012D00030E0431711F02CE0822730914A0530FFAF
:1012E00010C051E0282F2171213009F050E041E079
:1012F000282F2871283009F040E0541711F029E018
:10130000822731FF10C041E0282F2171213109F0DF
:1013100040E031E0282F2871283109F030E04317F0
:1013200011F029E0822794FF02C083FD877E089593
:101330000F931F93CF93DF9307DFEC01D23508F0B3
:101340004DC0D03508F0C3C0C03ED10530F5CD3C0E
:10135000D10508F09AC0C83AD10578F4C53AD1054C
:1013600008F090C0C130D10599F1CE010497813ABF
:10137000910570F1C0E0D0E02BC0CE01885A9109F0
:101380004B97C0F7C85AD0E0CC0FDD1FCA57DE4FCD
:101390000990D881C02DD4641BC0D03490F4D032D1
:1013A00008F0A8C0C83ED10598F0CE0191509F31F9
:1013B00008F78D2F6CDF082F8C2F90E0C5DE902B67
:1013C00054C08C2F90E0C0DEDF70C82FD92BD06ABC
:1013D000CE01DF91CF911F910F910895C03882E522
:1013E000D807B8F5C03682E5D80708F056C0C03433
:1013F00082E5D807C8F4C03282E5D80708F047C0B4
:101400008C2F8695869520E2829FC0011124C3709F
:1014100021E030E002C0220F331FCA95E2F7E90154
:10142000C82BD92BDD68D4CF8C2F869586958770F5
:1014300020E2829FC0011124C37021E030E002C08D
:10144000220F331FCA95E2F7E901C82BD92BDC68BC
:10145000BFCFC03C82E5D80750F48C2F8F71C03AC3
:10146000D24580F5982F84EF906AEC01B1CFCE0180
:10147000805C9245809708F07DCFDC2FDF71C0EF54
:10148000D06AA6CFA497D064A3CFD065A1CF8C2F6C
:101490008F71D82FC1EFD06A9BCF8C2F8695869500
:1014A000877020E2829FC0011124C37021E030E0E8
:1014B00002C0220F331FCA95E2F7E901C82BD92BCE
:1014C000DA6886CFE4DEC0E0D82FD06281CF8C2FDF
:1014D0008F71DDDE93E0CC0FDD1F9A95E1F7DF70B1
:1014E000282F84FF04C090E1899F90011124C22F0E
:1014F000D0696ECF8D2F8F71CADE082F8C2F90E0B0
:1015000023DE902BEC01E1CF80E00895F894E82FE2
:10151000E295EF70F0E041A18F7021E001C0220F51
:101520008A95EAF7922F9095942391A392A1822F06
:10153000892B82A37894089581E080939A0408957A
:101540000F931F93CF93DF93A0916802B09169022C
:101550009D012A563240BD016A567040613042E01A
:10156000740710F060E072E04091660250916702EB
:10157000FC0101E010E02617370748F040936602AF
:1015800050936702DF91CF911F910F91089584913D
:101590009D91891789F0ED018A93C901C5E096955F
:1015A0008795CA95E1F7E80102C0CC0FDD1F8A9547
:1015B000E2F7CE014C2B592B2F5F3F4F3196DBCFFB
:1015C0009091C704292F30E07091C804A901439578
:1015D000437050E07417150689F02B533B4F60FBA6
:1015E00087F9F90184839F5F93709093C70480917A
:1015F000C5048F5F8093C50481E0089580E008955D
:1016000090E06115D1F0885F9E4FFC0180818F3F93
:1016100099F0E82FE295EF70F0E041A18F7021E0A2
:1016200001C0220F8A95EAF7922F9095942391A3F7
:1016300092A1822F892B82A30895875F9E4FE5CFC9
:1016400090E06115A9F0885F9E4FFC0120812F3F3B
:1016500091F0E22FE295EF70E05EF0E0808190E0A3
:101660002F7002C0959587952A95E2F781700895AD
:10167000875F9E4FEACF80E00895FC01680F791FD5
:101680008FEF41E39191892728E030E0982F990F5F
:1016900087FF09C0892F842721503040B9F7E6170A
:1016A000F70781F70895892FF7CF382F25EB3203FD
:1016B000C001112497FF04C080589109892F089513
:1016C00080589F4FFBCF80913A0580FD14C081FD6B
:1016D00014C082FD16C080913905811581F08E31CC
:1016E00080F420E5829FC00111246EE170E00E9429
:1016F000712D862F089584E1089588E2089588E089
:10170000089580E5089580913A0580FD17C081FD18
:1017100017C082FD19C080913805811599F0883273
:1017200098F428E0829FC001112468E270E00E94D2
:10173000712D6115710551F0862F089562E0FCCF7F
:1017400064E0FACF61E0F8CF68E0F6CF81E0089579
:101750008091EE04811571F0E0911605F091170566
:10176000309739F00190F081E02D309711F0099514
:10177000089580E00895A3E0B0E0E1ECFBE00C9474
:101780003E2D209135023091360228173907B1F0ED
:101790008093350290933602E0911605F09117057B
:1017A000309761F00084F185E02D309739F023E027
:1017B00029838A839B83CE01019609952396E2E0D3
:1017C0000C945A2DA3E0B0E0E8EEFBE00C943E2D23
:1017D000209133023091340228173907B1F08093F9
:1017E000330290933402E0911605F091170530977B
:1017F00061F00084F185E02D309739F024E02983F1
:101800008A839B83CE01019609952396E2E00C948E
:101810005A2D90915001913099F0A6EFB1E0EFEF81
:1018200090E02C91821759F01196EF3F19F4211195
:1018300001C0E92F9F5F9630A1F7EF3FC1F40895F3
:101840009091490597FFE9CFE82FE695E695E69553
:10185000803FA8F7F0E0E450FE4F877021E001C020
:10186000220F8A95EAF78281822B82830895FE2FC8
:10187000FF0FFF0BEC50FE4FF8CF909150019130CD
:1018800021F49091490597FD0CC0E6EFF1E09191AC
:10189000891302C0DF011E9291E0EC3FF907B9F70E
:1018A0000895E82FE695E695E695803FC8F7F0E0C5
:1018B000E450FE4F9DEF81FD97EF80FF959582FDEF
:1018C0009295828189238283089580914F010895A2
:1018D0002FB7F89460912F027091300280913102FD
:1018E000909132022FBF08958091EE04811539F056
:1018F000EFDF462F572FBC01CB01BA010895E8DF77
:10190000DC01CB014091F0045091F1046091F204AC
:101910007091F304480F591F6A1F7B1FEDCF87E7B3
:1019200097E7809300089093010888E19AE00FB64A
:10193000F894A895809360000FBE90936000FFCF4D
:10194000FC0180912502909126028617970748F0A6
:101950006115710529F48091E8008E778093E80085
:10196000CB0140E0009741F4411106C08091E800AE
:1019700082FF30C080E00895209195042115B1F1D7
:101980002530B1F12091E80023FD2EC02091E80020
:1019900022FDECCF2091E80020FFE4CF4091F3003E
:1019A0002091F200342F009719F02830310558F0BB
:1019B00041E02830310509F040E02091E8002E7721
:1019C0002093E800CFCF41914093F10001972F5F22
:1019D0003F4FE9CF80919504811541F0853041F06A
:1019E0008091E80083FFC2CF81E0089582E00895EE
:1019F00083E00895982F9093E900891771F0709112
:101A0000EC002091ED005091F00021FD09C09F5F96
:101A1000973089F78093E9000895762F242F50E0BE
:101A20003091EB003E7F3093EB003091ED003D7F35
:101A30003093ED003091EB0031603093EB00709308
:101A4000EC002093ED005093F0002091EE0027FD74
:101A5000DECF089580911F0287FF13C08091E800B8
:101A600082FF06C08091E8008B778093E80008959C
:101A7000809195048111F2CF08958091950481158C
:101A8000D9F38091E80080FFF8CF8091E8008E774D
:101A9000ECCF2091E4003091E50095E6A90120917A
:101AA000EC00822F817020FF06C08091E80080FF4B
:101AB00006C080E008952091E80022FD1AC08091C0
:101AC0009504811589F0853089F08091EB0085FDC2
:101AD0000FC02091E4003091E50042175307F9F25E
:101AE0009150E1F684E0089582E0089583E008953E
:101AF00081E00895CF93DF93C8EDD0E088818F7E99
:101B00008883E7EDF0E080818160808384E082BF9C
:101B100081E080931E0288818E7F8883E2EE1082AE
:101B20001092DA00A1EEB0E01C9288818F77888352
:101B300088818068888388818F7D888319BC109212
:101B4000950410921D021092740410921C02A0EED3
:101B50008C918B7F8C9388818160888342E060E0E8
:101B600080E048DFA1EEB0E08C918E7F8C93E2EEB6
:101B7000F0E0808181608083808188608083E0EEF6
:101B800080818E7F8083888180618883DF91CF917F
:101B90000895E8EDF0E080818E7F80831092E2006E
:101BA0001092DA001092E100A0EEB0E08C9181601A
:101BB0008C9380818F77808319BCA7ED8C918E7F69
:101BC0008C9380818F7E808310921E020895A0E006
:101BD000B0E0EDEEFDE00C94362D7C016B015A0176
:101BE0008091D1040AE010E08A3010F001E010E0AA
:101BF000C1E0D0E0B601C701F5010995811115C01A
:101C000021960C171D078CF0CC9F9001CD9F300DB5
:101C1000300D112480E090E045E34A95F1F7000093
:101C2000019682179307C1F7E5CFCDB7DEB7EAE09B
:101C30000C94522D0F931F93CF93DF93EB018A01E6
:101C400090919504943059F58093E9008FEF90912D
:101C5000E80095FD06C095ED9A95F1F700008150DA
:101C6000B1F78091E80085FF1AC013DF811112C01F
:101C70008091E80085FD06C08091E8008E77809312
:101C8000E800F3CF88818093F1000150104011F0FB
:101C90002196EECF8091E8008E778093E800DF9167
:101CA000CF911F910F910895603229F440E250E0E6
:101CB000BC0182E0BFCF0895CF93DF93EC0148E0F1
:101CC00050E0BC0181E0B6DF88E0FE01A7E2B2E0AF
:101CD00001900D928A95E1F7DF91CF91089540E24E
:101CE00050E0BC0184E0A6CF46E050E0BC0184E0B7
:101CF000A1CF43E050E0BC0184E09CCF90914A0525
:101D000092FB222720F9281771F080FB92F990931B
:101D10004A056091490570914A0584E090E00E946F
:101D2000EC2D82E0CCC908951F93CF93DF93122F3F
:101D30008430E0F46A30D0F44630C0F4C42FD0E0F0
:101D4000CC0FDD1F2CE0629FC00DD11D112498E740
:101D5000899FC00DD11D1124632FCE0189960E9449
:101D6000D22D612FCE018A960E94D22DDF91CF9184
:101D70001F910895AF92BF92CF92DF92FF920F937F
:101D80001F93CF93DF93A12CB12C00E0650110E0ED
:101D900012C0FE01259135914F2D612F802FC4DF98
:101DA0002296F3948F2D8630A1F786E0C80ED11CC1
:101DB0001F5F1A3039F0E601CC0FDD1FCD59DD4F22
:101DC000F12CE7CF0F5F8CE3A80EB11C0430F1F6C5
:101DD000DF91CF911F910F91FF90DF90CF90BF9037
:101DE000AF90089580915001813061F5809149054F
:101DF00087FF28C07AD98093FD0140E250E066EF6A
:101E000074E08CEF91E00E949D2D892BD1F080E24F
:101E1000ECEFF1E0A6EFB4E001900D928A95E1F7C6
:101E2000E0911605F0911705309759F00480F5817F
:101E3000E02D309731F086E08093FC018CEF91E04B
:101E40000995089552D98093F40148E050E068E183
:101E500075E084EF91E00E949D2D892B91F388E03D
:101E6000E4EFF1E0A8E1B5E001900D928A95E1F789
:101E7000E0911605F0911705309719F30280F38170
:101E8000E02D3097F1F284EF91E0DACF811531F057
:101E900090914305982B90934305A4CF0895811505
:101EA00011F04AD99FCF0895811531F090914B05DB
:101EB000982B90934B0596CF0895811539F0809516
:101EC00090914B05892380934B058CCF0895CF9338
:101ED000DF938A3029F481E084D0DF91CF91089597
:101EE0008D3011F480E0F8CFC0916802D091690282
:101EF00096E0FE01A0E6B2E001900D929A95E1F71E
:101F0000803E78F186E019928A95E9F7C0916802DF
:101F1000D0916902611131C046E050E0BE0180E617
:101F200092E00E949D2D9E012A563240892B81F518
:101F30002A5F3F4F40917104642F70E0C9010E94F5
:101F40001A2D481B463010F4240F311D323010F08A
:101F500020E030E026593D4F20936802309369021B
:101F6000BCCF96E0899FF0011124E854F74F46E07A
:101F700050E0DE010E94992DC9CF9E012A5F3F4F9C
:101F8000FE012E173F0741F2808180958193F9CFA2
:101F9000C90145E0969587954A95E1F741E050E003
:101FA000BA0102C0660F771F8A95E2F7CB016091F4
:101FB000660270916702862B972BB9016B5F7F4F8A
:101FC000E5E076956795EA95E1F702C0440F551F65
:101FD0006A95E2F7842B952B8093660290936702B3
:101FE000A7CFCF93382FE0916802F0916902EA56AB
:101FF000F24020917104622F70E0CF010E941A2DEF
:10200000281B822F311569F066E00E94652DC82FCC
:10201000C11102C0CF910895C15060E080E257DF46
:10202000F7CF8E0F9F2F911D923010F080E090E03F
:1020300086599D4F8093680290936902EBCF1F935E
:10204000CF93DF93EC01162FFE018491811104C020
:10205000DF91CF911F910895612F39DF2196F4CF41
:10206000A1E0B0E0E6E3F0E10C942E2DA62E4A01AB
:1020700019016801082F880F110BC8010E94AC2CB0
:10208000B82E811509F465C093E0000F111F9A95D1
:10209000E1F7F801EA5EFE4F8381482F50E081119D
:1020A00041E00A5E1E4FF8016481758163557B4FE4
:1020B000CE0101960E94AA2DF401408051806280D9
:1020C000738006DCDC01CB0184199509A609B709E8
:1020D00084369105A105B10530F4B701C601CDDA0A
:1020E00099818917B1F10A2D1A2D110F110BC80111
:1020F0000E94AC2CB82E811106C0B12C8B2D2196DC
:10210000E2E10C944A2D83E0000F111F8A95E1F75C
:10211000F801EA5EFE4F8381482F50E0E816F10493
:1021200008F4A7010A5E1E4FF801648175816355AA
:102130007B4FC1010E94AA2DB701C6019EDA998189
:102140008913DBCFC5DBF4016083718382839383C2
:10215000D5CFA701B601C1010E94AA2DCFCFA5E01E
:10216000B0E0E5EBF0E10C94382D6B017D010EEA57
:1021700014E0CE0101969C0149EA54E061E080E060
:102180006FDF811559F095E09E012F5F3F4FF901F8
:10219000A4EAB4E001900D929A95E1F795E0E4EAA3
:1021A000F4E0D60101900D929A95E1F72596E8E0CA
:1021B0000C94542DA8E0B0E0E0EEF0E10C943A2D40
:1021C0007D0109EB14E0CE0101969C014CE954E03D
:1021D00064E083E045DF082F811581F19091B80418
:1021E00080919B04981751F110E09091BC0480916C
:1021F000BB048917E9F0E92FF0E0EF54FB4F848529
:1022000087FB662760F99F5F93709093BC04909161
:10221000BA049F5F9093BA048F77D2D9182F811197
:10222000E4CF85E090E00E94AC2C1823012F02C07F
:102230001111F7CF8091B80480939B04802F2896CA
:10224000E6E00C94562DA0E0B0E0E9E2F1E10C9458
:10225000382DEC0145E050E063EB74E00E949D2DC9
:102260008C01C090A004D090A104E090A204F09052
:10227000A3042EDBDC01CB018C199D09AE09BF093B
:1022800084369105A105B10518F4C801892BF9F030
:10229000809127019091280183559B4F2091260121
:1022A000422F50E0263008F045E0BE010E94AA2DE2
:1022B00082E090E00E94AC2C811551F009DB609324
:1022C000A0047093A1048093A2049093A30481E0DE
:1022D000CDB7DEB7E8E00C94542DCF92DF92EF92A9
:1022E000FF921F93CF93DF9300D000D0CDB7DEB71E
:1022F000C0909604D0909704E0909804F0909904D0
:10230000E7DADC01CB018C199D09AE09BF0911E0A8
:1023100084369105A105B10568F1E6DADC01CB014F
:102320000296A11DB11D89839A83AB83BC838091E2
:1023300047019091480183559B4F20914601422FC0
:1023400050E0253008F044E09E012F5F3F4FB90177
:102350000E94AA2D86E090E00E94AC2C182F8115D7
:1023600049F0B6DA609396047093970480939804CA
:1023700090939904812F0F900F900F900F90DF9101
:10238000CF911F91FF90EF90DF90CF9008950F9322
:102390001F93CF93DF93843008F56A30F8F446300A
:1023A000E8F4C42FD0E0CC0FDD1F9CE0699FC00D86
:1023B000D11D112498E7899FC00DD11D1124CE0194
:1023C00089960E94B62D082FCE018A960E94B62DBE
:1023D000902FDF91CF911F910F91089580E090E0B1
:1023E000F8CF462F7A3030F4663020F4843010F481
:1023F000672FCDCF80E090E00895CF92DF92FF92DB
:102400000F931F93CF93DF936C0100914705809149
:102410004605082BC3E0D0E010E0C8010C2E02C036
:10242000959587950A94E2F780FD0CC02197A8F74F
:10243000F12C8F2DDF91CF911F910F91FF90DF90A5
:10244000CF900895FC2EB6018C2FCBDF0E94980907
:10245000019761F3EECF0F931F93CF93FC0125817A
:1024600000811181C801211579F0611569F0C5DF7E
:10247000C82F682FC8010E94AF07B8018C2FB1DFA9
:10248000CF911F910F9108950E94E507C82FF5CFB6
:10249000CF93DF93EC01B1DFBE01A3DF0E94980967
:1024A000DF91CF910895FC012481211599F080815D
:1024B0009181EEDF282F92959F70963099F060F40D
:1024C000925F9F70923030F4203FB1F038F481E099
:1024D000283E38F080E008959A5FF3CF81E0243FF2
:1024E000C9F7089591E0213F09F090E081E0283E8E
:1024F00008F080E0892B089581E00895673F21E08E
:1025000072078105910528F4CB01875F9D4F0C94DC
:10251000B62D80E00895CF92DF92EF92FF92CF9395
:10252000DF93EC01C880D980EA80FB80B601C70147
:10253000E5DF9FEFC91AD90AE90AF90AC882D982E8
:10254000EA82FB82DF91CF91FF90EF90DF90CF90F6
:10255000089585E290E00E94B62D863269F486E205
:1025600090E00E94B62D833039F487E290E00E941B
:10257000B62D91E0813109F090E0892F81700895A6
:10258000AB0124E630E0BC0188E70E94CC2A9C0124
:1025900081E0232B09F080E0089580916C0481157F
:1025A000E9F096D9DC01CB01805A9541AF4FBF4F7E
:1025B00080936D0490936E04A0936F04B0937004A5
:1025C00080916B0481110AC062E070E086EB98E0B4
:1025D000D7DF811519F081E080936B040895809115
:1025E0006C04811561F080916B04811541F062E00B
:1025F00070E084EB98E0C4DF811110926B040895C1
:10260000A0E1B0E0E6E0F3E10C94302DFE0131965C
:10261000DF0180E11D928A95E9F700E210E099E080
:10262000A92E92E0B92E612C712C230153944A18E3
:102630009E2E8F2E6201730181E1481651046104C0
:1026400071041CF080E1C82ED12CA601B501892DA2
:10265000982D0E94C32DAC0CBD1C0D2C000C000845
:102660004C185D08600870080150104019F760961A
:10267000E0E10C944C2D6FEF85E290E00E94D22DAA
:102680006FEF86E290E00E94D22D6FEF87E290E03C
:102690000E94D22D60E088E290E00E94D22D6ADB99
:1026A000AFDF66E285E290E00E94D22D63E086E231
:1026B00090E00E94D22D61E187E290E00C94D22D4F
:1026C0001F921FB61F9211248F939F93AF93BF93B6
:1026D00080917304811113C080912F029091300278
:1026E000A0913102B09132024196A11DB11D80939B
:1026F0002F0290933002A0933102B0933202BF9127
:10270000AF919F918F911F901FBE1F9018952FB76B
:10271000F89480912F0290913002A0913102B091F3
:1027200032022FBF0895CF93DF93EC01F0DF8C1BB3
:102730009D0BDF91CF910895AFE0B0E0E2EAF3E1C5
:102740000C94352DFE013196DF018AE01D928A95A9
:10275000E9F78BE7C82E81E0D82E7F01AE2E9F2CA3
:1027600006E811E0F60181916F018F3F09F43DC049
:10277000F894E82FE295EF70F0E021A18F7041E02E
:1027800001C0440F8A95EAF7922F942B91A392A14E
:10279000842F8095892382A3789400C0E0E8F1E03B
:1027A00031E0B12C21912F3F79F0A22FA295AF708B
:1027B000A05EB0E08C9190E02F7002C09595879557
:1027C0002A95E2F780FF86C080E0B82A330F0E1703
:1027D0001F0741F7F60182918F3F11F00E94860A90
:1027E00080EA8A95F1F7F701B0828FEFE81AF80ACC
:1027F00080E891E08C159D0509F0B4CF4AE050E0E7
:102800006A2D792D84EE94E00E949D2D009749F069
:102810002AE0EA2DF92DA4EEB4E001900D922A955C
:10282000E1F70091E30410E007521B4F892B09F4F4
:1028300053C081E08093D8046ADF8093D6049093DC
:10284000D7048091EE04811509F49DC07E018BE0D0
:10285000E80EF11CF70185E011928A95E9F7809165
:10286000D1048A3008F05BC04FEA50E1B701C801DB
:10287000AED9811509F476C043E251E1B701C80130
:10288000A6D9811509F46EC04AED50E1B701C8011F
:102890009ED9811509F466C04DE651E1B701C80122
:1028A00096D9811509F45EC01092D1048091D504A7
:1028B00090E045E050E0B70187529B4F0E949D2D6C
:1028C00021E02093D404892B09F03FC02F96EBE040
:1028D0000C94512D832F79CF8091D804811509F460
:1028E000B0CFE090D604F090D70411DF8E199F0985
:1028F000059708F4A6CF45E050E064EE74E0C80107
:102900000E949D2D892B41F085E0E4EEF4E0D80192
:1029100001900D928A95E1F71092D80492CFC09061
:10292000D204D090D304F3DE8C199D09843F9140EA
:1029300008F09ACF8091D404811541F2F70185E027
:1029400011928A95E9F71092D404A091D504B0E0D1
:10295000A752BB4F85E0FE013B9601900D928A95F0
:10296000E1F7B4CF8091D1048F3F31F4D0DE809372
:10297000D2049093D304DECF8F5F8093D1048A304A
:1029800008F494CFF3CFE090D504F12CC70187521F
:102990009B4F7C0185E0F801AEEAB4E001900D9216
:1029A0008A95E1F765E070E08EEA94E00E943D0BC5
:1029B0008093AD0485E0E3EBF4E0D70101900D9244
:1029C0008A95E1F788E0E5ECF4E0A9EBB4E001904A
:1029D0000D928A95E1F768E070E089EB94E00E943F
:1029E0003D0B8093B804C090C104D090C204E09025
:1029F000C304F090C4048091CD049091CE04A091C2
:102A0000CF04B091D004C816D906EA06FB0609F433
:102A10005DCFC092CD04D092CE04E092CF04F0926C
:102A2000D0040E94680CC61AD70AE80AF90AC092B4
:102A3000F004D092F104E092F204F092F30446CF55
:102A40004F925F926F927F928F929F92BF92CF929E
:102A5000DF92EF92FF920F931F93CF93DF938091BA
:102A60006C04811509F44DC1C0915E02D0915F02E2
:102A70004EDE8C1B9D0BC29708F468C048DE809325
:102A80005E0290935F028AE692E0809368029093E0
:102A900069028091EE04811509F464C160E082EB63
:102AA00094E0CDDA60E08CEA94E0C9DA60E08AEA8A
:102AB00094E0C5DA809147050E948307823009F4CB
:102AC0003AC108F02EC1811132C160E084EA94E07D
:102AD000B6DA60E089E894E0B2DAC091430560E0DC
:102AE00083E894E0ACDA8C2F827209F42CC18EE773
:102AF00094E060E0A4DA8C2F817109F427C184E7A7
:102B000094E060E09CDA8C2F847409F422C18AE698
:102B100094E060E094DAC87809F41EC18DE594E091
:102B200060E08DDA60E082E694E089DA0E94A80B2A
:102B300081FF15C189E494E060E081DA60E085E519
:102B400094E07DDA60E08FE494E079DA80916602C7
:102B500090916702892B09F4BAC080916C048115A9
:102B600009F4B5C080916A048111B1C016DD80916D
:102B7000660290916702009709F4A9C0C82FC1703E
:102B8000D0E010E080FD0FC041E050E01F5FEA019F
:102B9000012E02C0CC0FDD1F0A94E2F79C012C230A
:102BA0003D23232B99F38091720480FF0DC1912F57
:102BB000990F990F990F392F395F80E023E0909397
:102BC000020180930501309303012093060124E65E
:102BD00030E047E050E060E071E088E70E94712A51
:102BE000892B09F074C080E2189FA0011124809104
:102BF000720480FFFBC0EEE3F2E080E211928A955E
:102C0000E9F735E6632E31E0732E81E691E04C0161
:102C100069E671E0D301ED913D01D4010D914D01C3
:102C2000040F152F111DF0E0E25CFD4F80E090E0F5
:102C300027E0B22EB81ACC24C394082E01C0CC0CC5
:102C40000A94EAF7980126593D4F2901E12CD20157
:102C5000FD902D01FC202B2D2E19277030E0AF2D7B
:102C6000022E01C0AA0F0A94EAF7DA2E31952195B7
:102C700031092770332701C0F6942A95EAF7DF2837
:102C80002081D22AD082E3942E2D283001F701969C
:102C900031968830910561F66615770509F0BACF4F
:102CA00004E610E020E24EE352E060E488E70E9490
:102CB000292B892B61F4C095D09580916602909163
:102CC0006702C823D923C0936602D093670280911C
:102CD0006B048115B1F00E94680CC0916D04D09115
:102CE0006E04E0916F04F0917004DC01CB018C1B49
:102CF0009D0BAE0BBF0B8F3F9F4FAF4FBF4708F4ED
:102D00006EDCDF91CF911F910F91FF90EF90DF90DC
:102D1000CF90BF909F908F907F906F905F904F90DB
:102D20000895833061F060E08CE894E0D1CE60E0FB
:102D30008EE994E0CDCE60E088E994E0C9CE60E011
:102D400082E994E0C5CE89E794E0D3CE8FE694E0A3
:102D5000D8CE85E694E0DDCE88E594E0E1CE83E44C
:102D600094E0EACEC0903A02D0903B02E0903C0260
:102D7000F0903D020E94680CDC01CB018C199D098A
:102D8000AE09BF09853F9140A105B10588F00091CA
:102D900039020E94680C60933A0270933B02809360
:102DA0003C0290933D02C8010196817080933902E4
:102DB00080913902811105C084EB96E00E94A00A3F
:102DC000C5CE84EB94E0FACF20E2129FC00111241B
:102DD000880F492F441F550B5195242F912F929501
:102DE000990F9076392F315E842FE9CE46595D4F89
:102DF00004E610E020E230E058CF89DC9C0190919D
:102E00003D0580913E05982B21F02093920430934C
:102E1000930490913F0580914005982B21F02093D9
:102E2000900430939104E0911605F09117053097C6
:102E300059F00680F781E02D309731F082E08093E1
:102E40003B058BE395E009950895611509F448C0A9
:102E5000E82FED5CE33150F4F0E0EE5FF14D0C94BF
:102E6000842D0E94630B819580933E05C6CF0E94FE
:102E7000630BFACF0E94630B819580933D05F6CFDB
:102E80000E94630BFACF0E94830B80933F05EECF25
:102E90000E94830B8195F9CF0E94830B81958093CB
:102EA0004005E4CF0E94830BFACF815D990B21E0AE
:102EB00001C0220F8A95EAF780913C05822B80930E
:102EC0003C05D4CF80913A05816080933A05CECFFE
:102ED00080913A058260F9CF80913A058460F5CF00
:102EE00040913D058D3C59F480913E0587FF0DC012
:102EF00010923E05411559F41092390508C08E3CD8
:102F000081F480913E0518169CF3411581F0809163
:102F10003F0590914005892B09F0A8CF1092380504
:102F2000A5CF8F3C41F447FFF0CF10923D05809133
:102F30003E058115E0CF803D19F41416B4F3E5CFBA
:102F400090913F05893D29F41916FCF610923F0532
:102F5000DCCF8A3D19F497FFD8CFF8CF9091400588
:102F60008B3D29F497FFD1CF10924005CECF8C3DF9
:102F700019F41916CCF3C9CF982F915D983078F4D5
:102F8000815D990B21E001C0220F8A95EAF7822F1B
:102F9000809590913C05892380933C05B6CF8D3D6B
:102FA00031F480913A058E7F80933A05AECF8E3D05
:102FB00021F480913A058D7FF7CF8F3D09F0A5CFA1
:102FC00080913A058B7FF0CFCF93C82F8115D1F038
:102FD0008450813A90F580915001813021F48091A4
:102FE000490587FD11C0E6EFF1E08081C817F9F0CF
:102FF000319681E0EC3FF807C1F78C2F0E94090C55
:103000000E94F20ECF910895EC2FE695E695E69595
:10301000F0E0E450FE4F828190E04C2F477021E0B9
:1030200001C0220F4A95EAF78223892B31F38C2FB6
:103030000E943D0C0E94F20EE0CF8C2F805E883003
:1030400060F4C77081E001C0880FCA95EAF7C091AB
:103050004305C82BC0934305D3CF8C2F855A8330AB
:1030600030F48C2F8452990B0E94BB0BCBCFEC2FEA
:10307000E85AEB3150F4F0E0EE0FFF1FE454FE4F3E
:10308000808191810E94E20BBDCF8C2F8D5C8331BA
:1030900008F0B8CF61E08C2FD8DEB4CF811569F18C
:1030A000982F9450913A20F40E943D0C0C94F20E0B
:1030B000982F905E983058F4982F81E091FD84E02D
:1030C00090FD880F92FD82950E949C08EFCF982F6B
:1030D000955A933020F480E090E00C94BB0B982F2D
:1030E000985A9B3120F480E090E00C94E20B982FEA
:1030F0009D5C933110F460E0A8CE08951F93CF93A8
:10310000DF93182FC0E5D0E0893311F0CAE0D0E09A
:10311000812F5ADF8FE99FE00197F1F700C000008F
:103120002197C1F7812FBADFDF91CF911F910895C9
:103130000F931F93CF9380E0CAEA9091C804209127
:10314000C704291709F441C0E92FF0E0E753FB4F0A
:10315000208127FB002700F92F779F5F93709093C2
:10316000C8048091C6048F5F8093C6042130F8F4B0
:10317000809147050E9483078130A9F40E94540F73
:103180008DE191E0801B910B8C011EDF8FE39CE9A8
:103190000197F1F700C00000802F80DF81E00E94DE
:1031A0005D0F81E0CACF8C2F801BA8DFFACFC9F753
:1031B000809147050E948307823011F480E5F4CFA7
:1031C0008EE40111F2CF8BE4F0CFCF911F910F91DC
:1031D00008951092430580915001813019F5809136
:1031E000490587FF1FC0EEEFF1E08EE111928A954D
:1031F000E9F780E090E00E94BB0B80E090E00E9445
:10320000E20B10924B050E94F20EEBE3F5E086E034
:1032100011928A95E9F710923905109238051092AB
:103220003A05EBCDE6EFF1E086E0E0CFD2DF88E1D2
:103230009AE00FB6F894A895809360000FBE909323
:103240006000FFCFAAE2B0E0E8E2F9E10C943D2D86
:103250008FE192E0FC0101962091F100208322E0B1
:1032600087329207B9F780912002893009F459C05A
:10327000C8F4823009F4B7C0833009F486C08130C5
:1032800089F18091E80083FFEBC080911F0290914B
:1032900020029A3008F0E4C0E92FF0E0EB5EF14D37
:1032A0000C94842D8A3009F48DC08B3051F78091B5
:1032B0001F02813231F78091230290912402892BE1
:1032C00001F78091E800877F8093E8000E942A0D33
:1032D00081E090912102911101C080E08093500122
:1032E00078DFCFCF80911F02813A59F68091E800B4
:1032F000877F8093E8008091230290912402892B9C
:1033000061F060E080E090E070E00E94A00C8091AD
:10331000E8008B778093E800B4CF68E087E292E022
:10332000F3CF80911F02813209F0ABCF809123024D
:10333000909124028D7F892B09F0A3CF8091E80022
:10334000877F8093E8008091E80082FF19C0209178
:10335000F3008091F200922F029731F48091F100F6
:10336000813011F0863021F48091F10080934F017B
:103370008091E8008B778093E8000E942A0D81CF2E
:10338000809195048111DFCF7CCF80911F02813A1B
:1033900009F077CF8091230290912402892B09F0C4
:1033A00070CF8091E800877F8093E8008091E800EB
:1033B00080FFFCCF809150018093F1008091E80064
:1033C0008E77D9CF80911F02813209F05ACF809138
:1033D000E800877F8093E8000E942A0D80912202F6
:1033E00080934E014ECF80911F02813A09F049CF60
:1033F0008091E800877F8093E8008091E80080FF5B
:10340000FCCF80914E01D8CF803889F0823841F5C9
:10341000809123028F70873018F58093E9008091A6
:10342000EB0085FB882780F91092E90006C08091A7
:103430007404880F90911C02892B9091E800977F6B
:103440009093E8008093F1001092F1008091E800E1
:103450008E7723C0811116C080912102813011F135
:103460008091E80083FF0AC08091E800877F809305
:10347000E8008091EB0080628093EB00AA96E3E085
:103480000C94592D823061F780912102811581F0D1
:103490001092E9008091E800877F8093E8000E9405
:1034A0002A0DDECF933009F080E080937404F0CFD2
:1034B000809123028F70282F2150263088F6809328
:1034C000E9002091EB0020FFE3CF933031F48091AD
:1034D000EB0080628093EB00DBCF9091EB0090617A
:1034E0009093EB0021E001C0220F8A95EAF7209328
:1034F000EA001092EA008091EB008860EBCF811126
:10350000AFCF809121028F77182F8091E3008078D0
:10351000812B8093E3008091E800877F8093E8000F
:103520000E942A0D8091E80080FFFCCF8091E3008B
:1035300080688093E30083E0111101C082E08093F2
:1035400095048ECF8058823008F08ACF8091210276
:10355000909122028C3D23E0920791F583E08A83CB
:103560008AE289834FB7F894DE01139620E03EE0AB
:1035700051E2E32FF0E050935700849120FF03C005
:1035800082958F703F5F8F708A30C0F0895C8D9319
:103590001D922F5F243169F74FBF8091E800877F2C
:1035A0008093E8006AE270E0CE0101960E94A00CD0
:1035B0008091E8008B778093E80052CF805DE7CF61
:1035C000292F30E02330310509F44DC078F5213042
:1035D000310509F47CC08BE590E0E8ECF1E02230A5
:1035E000310509F03DCF2091E800277F2093E800C6
:1035F00020912502309126028217930708F49C013E
:1036000040E02115310509F067C0411165C0809186
:10361000E80082FDCDCF80919504811549F2853077
:1036200039F28091E80083FFF2CFC2CF809123026C
:103630009091240221323105D9F12232310509F06D
:103640000FCF8330910508F00BCFFC01EE0FFF1F69
:10365000EB5AFE4F0190F081E02D8E5A9E4FDC0117
:103660008C9190E011C0282F30E0813089F0223019
:103670003105B1F0232B09F0F3CEEFE5F2E0E49150
:103680008E2F90E0EFE5F2E0009709F4E9CEABCFA2
:10369000E3E4F2E0E4918E2F90E0E3E4F2E0F4CF93
:1036A000E5E3F2E0E4918E2F90E0E5E3F2E0ECCF89
:1036B0008330910508F0D4CE880F991FFC01E55A9C
:1036C000FE4F0190F081E02D89E090E08CCF82E107
:1036D00090E0E3E2F2E087CF80919504811509F450
:1036E00067CF853009F464CF8091E80083FD60CF17
:1036F0008091E80082FD8BCF8091E80080FF81CF30
:103700004091F3008091F200942F2115310519F0BA
:103710008830910550F041E0089709F040E0809131
:10372000E8008E778093E8006CCF44914093F100DD
:103730003196215031090196E8CF803809F090CEBA
:103740008091E800877F8093E80080911D0280933C
:10375000F1007CCE811184CE80912102182F82301D
:1037600008F07ECE8091E800877F8093E800109378
:103770001D020E942A0D1115F9F084E08093950432
:1037800042E061EC81E00E94FA0C42E261EC84E0EC
:103790000E94FA0C42E261EC82E00E94FA0C42E2E2
:1037A00060EC83E00E94FA0C80919504843051F41F
:1037B00082E08093510154CE8091E30087FDDDCFFC
:1037C00081E0DCCF81E0F5CFFF920F931F93CF9381
:1037D000DF93C62FD42FF22E8115B1F060934105EF
:1037E0000E948713809337029093380281E0C1FDD5
:1037F00084E0C0FD880FC2FD82950E94460FCDB7C0
:10380000DEB7E5E00C94572D80914105681331C077
:1038100000913702109138020E948713801B910B90
:10382000883C910530F51D2F105ECD17A1F0C770B3
:1038300001E0802F01C0880FCA95EAF70E944F0F60
:10384000183048F48D2F877001C0000F8A95EAF771
:10385000802F0E94460F8F2D51DC81E0D1FD84E046
:10386000D0FD880FD2FD8295183048F60E944F0F88
:10387000C6CF81E0C1FD84E0C0FD880FC2FD829506
:10388000F5CFA4E0B0E0E7E4FCE10C94332D7C013B
:10389000FC018481811509F490C061E0C7010E9498
:1038A0002B128C01F7018581811509F40CC1980157
:1038B00037572038310508F0B0C4003108F06EC029
:1038C00066EF71E080E090E00E947E12811166C098
:1038D000A12CB12C450101111CC089829A82AB82B6
:1038E000BC828E010F5F1F4FC8010E948B12902E69
:1038F000B12E813008F452C009F07DC0C8010E9489
:103900008B12282F8130D1F4C8010E948B12F6DB74
:103910001BC087EF881681E09806A104B10409F462
:103920003DC0B401C5010E947E129FEF891A990A19
:10393000A90AB90A8111EDCF0150CDCF823059F4D7
:10394000C8010E948B1240DB8FE39CE90197F1F7DD
:1039500000C00000C9CF833029F4C8010E948B1237
:103960009DDBF2CF843091F4C8010E948B12282F86
:10397000C12CD12C9AE0A92E422F50E0CA010E94FE
:10398000912D892BF1F4C114D10459F58FE39CE9F1
:103990000197F1F700C000002111A6CF80914805E2
:1039A000877059F0F7018581811539F080914A05BA
:1039B00082FF03C082E00E945F082496EDE00C9431
:1039C0004F2DAC9CC001AD9C900D1124405351096A
:1039D0006A01C80ED91E892D9B2D0E948B12282F9B
:1039E000CBCF8FE99FE00197F1F700C0000081E0A5
:1039F000C81AD108C8CFE82FF0E0E65BF14F9491E8
:103A0000792E282F26952695269530E0F901E65C3B
:103A1000F14FC4908770D12C082E02C0D594C79462
:103A20000A94E2F7F901E65DF14FA490B12C082E5B
:103A300002C0B594A7940A94E2F7265E314FF901CB
:103A40008490912C02C0959487948A95E2F7C0FEE9
:103A500008C081EEB9DA8FE39CE90197F1F700C065
:103A60000000A0FE08C086EEAFDA8FE39CE9019764
:103A7000F1F700C00000872DA7DA8FE39CE90197DA
:103A8000F1F700C00000872D09DB8FE39CE9019767
:103A9000F1F700C00000A0FE08C086EEFFDA8FE359
:103AA0009CE90197F1F700C00000C0FE08C081EE5C
:103AB000F5DA8FE39CE90197F1F700C0000080FE82
:103AC00013CF8CE224CFF801E851FC47E730F10531
:103AD00008F095C3E15EF14D0C94842D26E241EE91
:103AE00061EE72DE5BCF27E245EE65EEFACF26E2AD
:103AF00041EE60EEF6CF27E245EE64EEF2CF26E22D
:103B000041EE62EEEECF27E245EE66EEEACF28E226
:103B100041E0EBCF80914905816080934905609138
:103B2000490570914A0584E090E00E94EC2D51DB3C
:103B300035CF80914A05886080934A05F0CF809107
:103B400049058260EACF809149058460E6CF809183
:103B500049058860E2CF80914A058160EDCF809170
:103B60004A058260E9CF809149058061D6CF809176
:103B700049058062D2CF809149058064CECF29DB90
:103B8000809149058068C9CF809149058C60C5CF77
:103B900080914A058360D0CF809149058E7FBDCF4B
:103BA00080914A05877FC8CF809149058D7FB5CF29
:103BB000809149058B7FB1CF80914905877FADCF3B
:103BC00080914A058E7FB8CF80914A058D7FB4CF12
:103BD000809149058F7EA1CF809149058F7D9DCF32
:103BE000809149058F7B99CFF4DA809149058F77D1
:103BF00094CF80914905837F90CF80914A058C7F37
:103C00009BCF90914905892F8B7F92FF8460877F9E
:103C100092FF886082CF80914A05982F909590FB03
:103C200080F990FB81F988CF90914905892F8F7B8E
:103C300096FF806472CFCDDA90914905892F97FB6A
:103C400087F980586ACF61E08EE090E00E94D22D23
:103C500066CF60E0F9CF90914905892F8F7E94FF60
:103C600080615BCF90914905892F8E7F90FF8160A5
:103C700054CF90914A05892F877F93FF88605CCF4E
:103C800089E2B8C289E2C6C207379CE71907F1F09A
:103C900008379CE7190749F19801205E3245203228
:103CA000310548F5811139C00F7181E090E002C003
:103CB000880F991F0A95E2F78C01682F83E090E046
:103CC0000E94D22D802F0E94950768CE811549F061
:103CD00081E00E949B0743E062E081E00E941808B7
:103CE0005DCE81E00E94A407F6CF811511F082E03D
:103CF000F0CF82E0F7CF811571F10B359CE7190702
:103D000009F10C359CE7190791F00A359CE7190772
:103D1000B9F001309CE71907E9F003309CE7190777
:103D200099F001151C47B9F454DA0E948F0C809168
:103D30004A05002482FF0394802D0E947E0E2ECE21
:103D400081E0FBCF80E0F9CF6FEF7FEF80E090E084
:103D50000E94EC2D6BDAF70100811181811509F4C5
:103D600047C0C8010E94FD11D82E682FC8010E94CB
:103D7000AF07B8018D2D0E94F1110E949809182FEC
:103D8000A92EF701D580B680B2948FE0B822809139
:103D90004805877001F1CD2CD114F1F0892F807F77
:103DA000803461F0812F805E8830A8F0892F807E7A
:103DB000803221F4123078F0B11469F080914A0514
:103DC00082FF09C082E00E945F08809148058770E9
:103DD000CC24C3948111C12CEA2DE295EF708A2D79
:103DE000803C08F067C0F0E0EA5DF14D0C94842D52
:103DF000C8010E94E507D82EBCCF0A2D0F70803174
:103E000010F00295007FD114B9F0011569F0812FEF
:103E1000805E883010F0111109C080914305802B1D
:103E2000809343050E94F20E812F3EC080914B0586
:103E3000802B80934B05F6CF812F30D90115D1F11E
:103E4000812F805E883010F0111104C0802F0E94F5
:103E50009C0806C0009580914B05802380934B05FC
:103E60000E94F20E27C00A2D0F70807F803211F061
:103E70000295007F113040F009F464C0D11409F4B8
:103E80006FC0B11499F1D0CF80914A0582FD2AC04C
:103E9000D11461F0011539F080914305802B809396
:103EA00043050E94F20E80E08FD804C080E0F6D86F
:103EB0000111CCCFC11409F4B6C08091480580FD32
:103EC000B2C0F70115828695869586950E949B075C
:103ED000C701D7DC809148058695869586950E9416
:103EE000A407A1C0D11499F0B11004C0802F0E9482
:103EF000460FE0CF8B2D8130E9F690914405802F5D
:103F000089230817B9F2902B90934405D3CFB110B1
:103F1000D1CF802F0E944F0F90914405802F89238D
:103F200029F0802F80958923809344059091450541
:103F3000802F892309F4BECF802F80958923809319
:103F40004505B8CF8B2DD11421F0863008F0B2CFC3
:103F5000CDCF853008F0AECF802F0E944F0FAACF73
:103F6000B114D1F3193361F48FEF97EE23E0815050
:103F700090402040E1F700C00000812F8FD89ACFF9
:103F80008FE39CE90197F1F7F6CF869586958370CC
:103F9000813060F009F08ECF812F9A2D9370D1106F
:103FA00002C080E090E00E94E20B84CF812F9A2D26
:103FB0009370D11002C080E090E00E94BB0B7ACFDA
:103FC0006D2D812F0E94251775CF8370E1F5D110DB
:103FD00028C0812F829586958770880F880F412F82
:103FE0004F70082E01C0440F0A94EAF7212F207168
:103FF00014FF06C02FE001C0220F8A95EAF7209532
:104000008A2D869586958370982F8230A1F0833013
:10401000B9F080914605913059F0242B82230E94FB
:1040200095070E94A80B60E0C7010E942B12C5CC27
:10403000842B822BF4CF242B809146058227EFCF4F
:10404000822F842BECCFD11459F1A0FEEACF812F1F
:10405000829586958770880F880F412F4F70082EA4
:1040600001C0440F0A94EAF7212F207114FF06C003
:104070002FE001C0220F8A95EAF720958A2D8695B8
:1040800086958370982F823089F08330A1F08091DB
:104090004705913041F0242B82230E949807C1CF1D
:1040A0008230A8F6BECF842B822BF7CF242B8091B1
:1040B00047058227F2CF822F842BEFCF8F70082FF6
:1040C000D11431F00E949B07812F0E94460FA9CF87
:1040D000812F0E944F0F802F0E94A407A2CF123F72
:1040E00081F170F4103FC9F0113F91F0D11409F43F
:1040F00056C0B11409F450C0812F0E94E41791CF2B
:10410000133F29F1143F91F790914A0592FD2CC07D
:104110008A2D8F71D11401F317C08B2DD11479F032
:10412000853008F07ECF8A2D8F71282F81E001C065
:10413000880F2A95EAF7909147058927AECF8630F8
:10414000F0CF8F71D110C8CF0E949B076ACF80E05B
:10415000D11409F4A2CF8A2D8F71982F81E001C06C
:10416000880F9A95EAF799CFD11459F08F7192FF81
:10417000EBCF982F990F990F990F93609093480563
:10418000E3CF81E00E945F088B2D823008F449CF95
:1041900082E00E945F0845CF8A2D8F71D5CFB11480
:1041A000A1F0193369F48FEF97EE23E0815090402E
:1041B0002040E1F700C00000812F0E944E1831CF4F
:1041C0008FE39CE90197F1F7F5CF8A2D8F7184CFAA
:1041D00006319CE7190709F057CD809143058A7A8B
:1041E00091E0811101C090E090934205811509F49E
:1041F00047CD85E30E94090C0E94F20ECFCB063119
:104200009CE7190709F040CD80914205811509F41A
:1042100039CD85E30E943D0CEFCFF801E851FC4712
:10422000E730F10508F456CC10924105980130575B
:104230002332310568F684E090E00E94BE2D809321
:10424000490590934A05F801E150F047E232F10543
:1042500008F060CCEE5CF14D0C94842D80918C05BF
:10426000803170F480918B05811551F0E0914D05FE
:1042700020914C0530918705409186052E1301C091
:104280000895BF0187E0E89FF0011124DF01A25BE0
:10429000BA4F14968C911497811551F111968C9107
:1042A0001197831325C08C91841322C015968C918D
:1042B000159781111DC012968D919D91A091880531
:1042C000B09189058A1B9B0B883C910588F48091ED
:1042D0008C058F70806180938C05EC5AFA4F808139
:1042E0008F708061808386E895E0CBDA0C94550866
:1042F0006F5F7F4FFB01E770C1CFADE0B0E0E3E857
:10430000F1E20C94332D8C0186E0F801DE01189661
:1043100001900D928A95E1F7F801F580848196E885
:10432000892E95E0992E70908A05711017C081151D
:1043300091F0F11409F40EC1C8010E9453128115C5
:1043400009F408C187E0F801A6E8B5E001900D92F4
:104350008A95E1F783DFFF24F39455C0D080A280D3
:10436000B380C0908B052091880530918905A50107
:10437000421B530BC11409F4BDC0483C510508F061
:1043800076C0811541F3809187059180E0908C057E
:104390009E2D903108F057C0981214C08091860568
:1043A0008D1110C0F11049C08E2D8F7080618093E7
:1043B0008C0586E895E065DA80918C05F8018683A6
:1043C000F12C21C0F11039C040E0692D8D2D0E94E3
:1043D000360840E0692D8D2D0E943608F82E811197
:1043E000EFCF888599850E944812292F22952F703A
:1043F000903470F49F70223098F09115A9F0F80174
:104400009681903188F48F2D2D96EDE00C944F2DF0
:104410002A5F2F70223060F0C80133DAFC2CF3CF12
:10442000911511F0811579F3805E883060F3F4CF37
:10443000803F48F3815F8330F9CF80918C058160A4
:1044400080938C05BDCF981237C0809186058D1161
:1044500033C0F11031C0E682C80113DA87E0F801F9
:10446000A6E8B5E001900D928A95E1F774CFE0904F
:104470008C059E2D903148F486E895E002DAF4012F
:1044800087E011928A95E9F79BCF811509F463CFF4
:1044900090918705818198130FC0809186058D11B9
:1044A0000BC0F11009C0E682C801EBD9F40187E026
:1044B00011928A95E9F74FCFC8010E9453128115D6
:1044C00009F448C0F11409F445C08E2D803208F477
:1044D00039CF809186059091870589839A83AB8235
:1044E000BC827D821E8280918C058F83CE010196D5
:1044F000C8D928CF483C510508F0C1CF811509F42F
:104500002ACFF11439F1909187058181981318C051
:10451000809186058D1114C080918C0580FD9ECF01
:10452000803108F49BCF8683807F803F09F494CF4D
:104530008681982F907F905F8F70892B86838CCF98
:10454000C8010E9453128111FDCE80918C058160BB
:1045500080938C05C80195D9FECEABE1B0E0E3EBCA
:10456000F2E20C943C2D4E8B5F8B688F798F8A8F93
:10457000192F9B8F911110924B051D8A86E0FE0129
:104580007696DE011F9601900D928A95E1F70A8DCD
:10459000011561F00B8B1C8B61E0CE010F960E9420
:1045A0002B1261E0CE010F960E942B120B8B1C8BFD
:1045B00087E0FE013F96DE01189601900D928A95E4
:1045C000E1F7CE01089699DE81112EC020914C05AD
:1045D00030914D0587E0AE01485F5F4FFA014750CB
:1045E0005109DA0101900D928A95E1F78C858115C8
:1045F000D9F0822F90E08395877090E0AC0134175A
:104600001506E1F097E0929FD0011124A25BBA4F0A
:104610009E012F5F3F4FF90101900D929A95E1F7AE
:1046200040934C050E94550880914D0590914C0592
:10463000891311C06B96E4E00C94582D0E94E91880
:1046400010924C0510924D05E6E8F5E087E01192D6
:104650008A95E9F7E9CF27E0829FC0011124825BA8
:104660009A4F4BDE811531F380914D0590914E05A7
:104670000196877080934D05D7CFA6E0B0E0E3E4C4
:10468000F3E20C943C2D0E9487138C018091F4047A
:104690009091F5048017910771F019821A820E9497
:1046A0008713BC0149815A8180E090E056DF009376
:1046B000F4041093F5042696E4E00C94582DCDB73D
:1046C000DEB7A2970FB6F894DEBF0FBECDBF85B799
:1046D000806885BF85B7806885BF84B7877F84BFC2
:1046E0000FB6F894A895809160008861809360006F
:1046F000109260000FBE80E890E00FB6F8948093AF
:104700006100909361000FBE81E08093510184E8C5
:104710009AE08093F2019093F3010E94C90D0E94E8
:104720007A0D8091E20084608093E2007894809119
:104730009504811599F08091E9001091EC008F703B
:1047400010FB112717F9182B1092E9008091E8004F
:1047500083FD0E9422191F701093E90082E084BD3E
:1047600093E095BD9AEF97BD80936E001092F00490
:104770001092F1041092F2041092F3040E94A91214
:10478000811102C00E943B138091D8008061809308
:10479000D8008AE18A95F1F700C08091D900182FDE
:1047A000117080FD04C00E94C90D109295041093F1
:1047B000EE041093EF04109307011111ECD7E5EC10
:1047C000F4E088E011928A95E9F78091EF0491E096
:1047D000282F292720938C0490938F04811106C0E1
:1047E00084EF8093090185EF8093080160E080E009
:1047F0000E94000B61E080E00E94000B8FE891E0D6
:104800000197F1F700C0000010E080918F041817A5
:1048100008F490C08091EF0490E0811101C095E010
:104820009093E30485E0891B8093D5045BE7E52E34
:1048300051E0F52E00E811E0F70181917F018F3FF3
:1048400011F00E94860A0E151F05B1F700E811E06D
:10485000F80181918F018F3F11F00E94860A81E05B
:1048600006381807A9F7E9EDF4E08AE011928A9575
:10487000E9F7E4EEF4E08AE011928A95E9F780E046
:1048800090E00E94BE2D833E9E4F21F40E94A9120B
:10489000811129C063EE7EEF80E090E00E94EC2D54
:1048A00060E082E090E00E94D22D81E08093460596
:1048B00061E083E090E00E94D22D60E074E184E04A
:1048C00090E00E94EC2D0E943B1360E070E0AB0191
:1048D0008FE090E00E94E42D60E070E0AB0183E1A6
:1048E00090E00E94E42D82E090E00E94B62D80933B
:1048F0007F0484E090E00E94BE2D80934905909350
:104900004A050E949C138FEF96E721E0815090406A
:104910002040E1F700C000000E949C138091D90460
:1049200080FF1AC06FEF7FEF80E090E00E94EC2DD7
:104930000E948F0C60E0812F0E94200B082F61E005
:10494000812F0E94200BE12FF0E0E357FB4F880FEF
:10495000802B80831F5F59CF83E090E00E94B62DAB
:104960000E94950783E08093720480E28093710433
:1049700085D56BE070E08FE09EE00E94C01281154B
:10498000E9F18091720465E070E081FDC9C08AE0C0
:104990009EE00E94C012811589F16DE070E088EF01
:1049A0009DE00E94C012811549F10E94680CDC0153
:1049B000CB01805A9541AF4FBF4F80936D049093C8
:1049C0006E04A0936F04B0937004EAE6F2E0DF0196
:1049D00080E092E01D920197E9F7E0936802F0937E
:1049E00069028FEF9FEF809366029093670281E0E8
:1049F00080936C0480936B0410926A048091EE049F
:104A0000811101C0CBD68AE091E080931605909386
:104A1000170541E0842E912C7E018FEFE81AF80AE9
:104A20008091950400E110E432E1D32E853009F441
:104A3000D1C00E949C1320E8A22E24E0B22E89ED62
:104A400094E089A39AA3FC01D5019D91808124E083
:104A5000AA38B20709F4C8C031969817B1F320906C
:104A6000EE0495E7C92E94E0D92E712CE9A1FAA1A4
:104A70006190E9A3FAA3F50181915F01861509F41C
:104A800042C08625382E00E010E055245394832D33
:104A9000852189F1462C45202114F9F0F601808109
:104AA00090E09401002E01C0220F0A94EAF78223BD
:104AB000892B99F409837A820E9487138B839C83C4
:104AC00081E08D8391E0411001C090E09E83498197
:104AD0005A816B817C818D8140DD41100CC0882D15
:104AE000002E01C0880F0A94EAF7982F9095F601DE
:104AF000808189238083550C0F5F1F4F063011057D
:104B000031F6F501629273948FEFC81AD80A872D97
:104B10008A3009F0ABCF0E94740CBB24B39468C0F8
:104B200085E09EE036CF80919504843029F10E9483
:104B3000EF121092730488E190E00FB6F894A895F4
:104B4000809360000FBE1093600083B7817F846004
:104B500083BF83B7816083BF7894889583B78E7F46
:104B600083BF0FB6F894A895809160008861809308
:104B70006000109260000FBE0E949C13E9EDF4E00B
:104B8000A5E7B4E080E021912D9391E0211101C0CF
:104B900090E0892B23EE34E02E173F07A1F7811513
:104BA000C9F0809174048115A9F009BDD9BC09B47C
:104BB00000FEFDCF8091D8008F7D8093D80080913A
:104BC000E00082608093E0008091E00081FDFCCFF6
:104BD0000E94E91880919504853009F4A4CF0E94C1
:104BE000E9180E94A80B25CF981339CF46DDB12CC8
:104BF000D090EE04D11419F00E949818D82E80910C
:104C00009A04811551F010929A048091C704809300
:104C1000C8048091C5048093C604C12C38C061E0EB
:104C20008C2D0E94200B182F60E08C2D0E94200BF1
:104C3000110F812B0C2D10E0D801A357BB4FEC9125
:104C40009E2F9370891711F1EE0FEE0FE82BEC9366
:104C500080918C048C0DEF70F0E0E759FE4F065701
:104C60001B4FA080F8019081A90E9A2D60E0923030
:104C70001CF49F3F1CF461E00E94E00A8A2DAA0CFC
:104C8000990B62E070E02DD7F8018083C394809186
:104C90008F04C81620F28091EE04811519F00E944D
:104CA0009818D82AD11439F00E94740C0E9420154B
:104CB0000E94CD1204C00E942015B110F9CF86E0E9
:104CC000EBE3F5E0D70101900D928A95E1F7709042
:104CD0003C05C0903D05D0903E05A0903F05B090AA
:104CE000400510923D0510923E0510923F0510922E
:104CF00040058D2D8C2909F441C00091920410913A
:104D000093040E948713801B910B9C01909139059D
:104D1000911509F40FC22531310580F19F3F19F03B
:104D20009F5F90933905C11459F00E94630B91E085
:104D30001C140CF09FEF899F802D112480933D055A
:104D4000D11459F00E94630B91E01D140CF09FEFF9
:104D5000899F802D112480933E0580913D0581150A
:104D600069F010913E05111549F00E94550B809392
:104D70003D05812F0E94550B80933E058A2D8B297E
:104D800009F441C000919004109191040E9487138E
:104D9000801B910B9C0190913805911509F4C5C1B8
:104DA0002135310580F19F3F19F09F5F90933805C1
:104DB000A11459F00E94830B91E01A140CF09FEF9C
:104DC000899F802D112480933F05B11459F00E94D2
:104DD000830B91E01B140CF09FEF899F802D112411
:104DE0008093400580913F05811569F01091400541
:104DF000111549F00E94550B80933F05812F0E94A9
:104E0000550B8093400580913C05781219C0809124
:104E10003D05811511F08C1113C020913E0521151F
:104E200011F0D2120DC090914005911511F09B1117
:104E300007C030913F05311103C0822B892B11F03F
:104E40000E94FD1686E0F701ABE3B5E001900D92FC
:104E50008A95E1F70E94A80B90919404891721F09C
:104E6000809394040E94680C80919504843009F02A
:104E7000D7CD83E08093E9008091E80082FFD0CD18
:104E80008091E80090E085FF05C00E94490D8115E2
:104E900089F091E08091E8008B778093E80091158C
:104EA00009F4BECDE981E150E33168F5F0E0EC5A58
:104EB000F14D2AC680E2C82ED12C87018091E800EE
:104EC00085FD0AC08091E8008B778093E8000E94FE
:104ED000490D811599F3DDCF8091F100F8018083B0
:104EE00081E0C81AD108A9F20F5F1F4FE7CF1A82DD
:104EF0008CE08B8319C08A81833079F138F481305A
:104F000021F1823051F08FEF89830EC08430D9F7C0
:104F10001B821C821D821E8207C088E290E026D67A
:104F20001B821C821D828E83E0911605F09117056D
:104F3000309709F475CD0284F385E02D309709F49C
:104F40006FCD60E2C70109956BCD0E94680CE2D578
:104F50006B837C838D839E83E7CF8B8190E0FE0102
:104F600034968A30910504F711920196FACF8A811E
:104F7000823019F08530C1F2C6CF6B817C818D8182
:104F80009E81C8D588E290E00DD6CECF4C816B8152
:104F90008A810E94C7119C013827232732272D833D
:104FA0003E83C2CF2D813E813227232732274C8179
:104FB0006B818A810E94940EB7CF0E94BA0EB4CF43
:104FC00080E18A83B1CF81E08A8387EF92CF4A80E4
:104FD0005B80542445245424612C712C87018C81DE
:104FE0006701C80ED11C0C151D0509F49DCF87EF74
:104FF000481681E058066104710470F4C201875FAD
:105000009D4FB4D5F80184830F5F1F4F8FEF481A6F
:10501000580A680A780AE7CF80E0F4CF3C804A80DB
:105020005B80542445245424612C712C8701530146
:105030006301A314B104C104D10408F075CF87EF54
:10504000481681E058066104710430F4F801648167
:10505000C201875F9D4FA6D58FEFA81AB80AC80A6C
:10506000D80A8FEF481A580A680A780A0F5F1F4F4C
:10507000E0CF0E94001358CF84E0A3CF3C804A8049
:105080005B80542445245424612C712C530163010A
:105090008E010B5F1F4FA314B104C104D10408F0AB
:1050A00043CF80EE481681E058066104710488F40D
:1050B000C20189965BD5F80181938F018FEFA81A01
:1050C000B80AC80AD80A8FEF481A580A680A780A34
:1050D000E2CF80E0F0CF3C804A805B8054244524BE
:1050E0005424612C712C870153016301A314B10472
:1050F000C104D10408F018CF80EE481681E05806AC
:105100006104710428F4F8016481C20189964AD5CA
:105110008FEFA81AB80AC80AD80A8FEF481A580A97
:10512000680A780A0F5F1F4FE1CF2B30310508F076
:105130003CCE69CE2B30310508F0F2CD1FCE7894ED
:105140001F921FB61F9211248F939F93AF93BF930B
:1051500080912F0290913002A0913102B0913202E1
:105160000196A11DB11D80932F0290933002A09350
:105170003102B0933202BF91AF919F918F911F90F6
:105180001FBE1F9018951F920F920FB60F921124F9
:105190002F933F934F935F936F937F938F939F933F
:1051A000AF93BF93EF93FF938091E10082FF09C01B
:1051B0008091E20082FF05C08091E1008B7F8093A7
:1051C000E1008091DA0080FF24C08091D80080FF48
:1051D00020C08091DA008E7F8093DA008091D90020
:1051E00080FFA9C080E189BD82E189BD09B400FECC
:1051F000FDCF81E08093950480911E02811109C04A
:105200000E94C90D0E947A0D8091E2008460809313
:10521000E2008091E10080FF1AC08091E20080FFEF
:1052200016C08091E2008E7F8093E2008091E200C0
:1052300080618093E2008091D80080628093D800E2
:1052400019BC85E08093950483E08093510180919F
:10525000E10084FF2FC08091E20084FF2BC080E139
:1052600089BD82E189BD09B400FEFDCF8091D800DF
:105270008F7D8093D8008091E1008F7E8093E10044
:105280008091E2008F7E8093E2008091E200816055
:105290008093E20080911D02811509F452C084E0E0
:1052A0008093950480919504843009F052C082E087
:1052B000809351018091E10083FF2CC08091E20036
:1052C00083FF28C08091E100877F8093E10082E026
:1052D0008093950410921D028091E1008E7F80934F
:1052E000E1008091E2008E7F8093E2008091E200F5
:1052F00080618093E20042E060E080E00E94FA0C6E
:105300008091F00088608093F00081E080935101EB
:1053100080935001FF91EF91BF91AF919F918F9139
:105320007F916F915F914F913F912F910F900FBEA1
:105330000F901F90189519BC1092950410921E02A0
:1053400068CF8091E30087FF02C083E0A9CF81E0AE
:10535000A7CF81E0ADCF1F920F920FB60F9211240D
:105360001F932F933F934F935F936F937F938F93ED
:105370009F93AF93BF93CF93DF93EF93FF93E9EEA8
:10538000F0E080811091EC008F7010FB112717F96D
:10539000182B1082C0EFD0E08881877F88837894B3
:1053A0000E942219E9EEF0E01082888188608883EB
:1053B0001F701083FF91EF91DF91CF91BF91AF915B
:1053C0009F918F917F916F915F914F913F912F911D
:1053D0001F910F900FBE0F901F901895EF92FF92A4
:1053E0000F931F93CF93DF93C82F8B011092BC00B4
:1053F00084EA8093BC000E9487137C018091BC00EA
:1054000087FF26C08091B900887F883029F080917D
:10541000B900887F803179F5C093BB0084E8809320
:10542000BC000E948713EC018091BC0087FF1CC068
:105430002091B900287F80E090E0283189F081E058
:1054400090E0203409F480E091958195910908C09D
:10545000C7010E9493130817190780F68EEF9FEF7C
:10546000CDB7DEB7E6E022C3CE010E949313081742
:105470001907D0F6F3CF8FEF9FEFF2CF1092B9005C
:105480008CE08093B80008950F931F93CF93DF9320
:10549000EB018093BB0084E88093BC000E948713DB
:1054A0008C018091BC0087FF10C02091B900287F3B
:1054B00081E090E0283209F480E09195819591098E
:1054C000DF91CF911F910F910895CF3FDC0749F3F2
:1054D000C8010E949313C817D90718F78EEF9FEFE2
:1054E000EFCF6F927F929F92AF92BF92CF92DF9257
:1054F000EF92FF920F931F93CF93DF93B82EA62EB8
:10550000972E6A0189010E9487133C01043111051D
:1055100058F10F3F100761F1C80164E170E08AD2D1
:10552000F62EE72E6F2D7E2D8B2D58DFEC01892B6B
:1055300011F5EA2CF92CCE0CDF1CEC14FD0411F053
:10554000209719F184E98093BC00CE01DF91CF91BF
:105550001F910F91FF90EF90DF90CF90BF90AF9091
:105560009F907F906F900895FF24F394E12CDACF01
:1055700085E0F82EFBCF0F3F1007A1F2C3010E9478
:1055800093130817190770F6D4CFB801F70181916A
:105590007F017ADFEC01D1CF6F927F929F92AF9221
:1055A000BF92CF92DF92EF92FF920F931F93CF9310
:1055B000DF93B82EA62E972E6A0189010E948713C9
:1055C0003C010431110558F10F3F100761F1C8018A
:1055D00064E170E02FD2F62EE72E6F2D7E2D8B2DFD
:1055E000FDDEEC01892B11F5EA2CF92CCE0CDF1C29
:1055F000EC14FD0411F0209719F184E98093BC00AC
:10560000CE01DF91CF911F910F91FF90EF90DF902E
:10561000CF90BF90AF909F907F906F900895FF24A0
:10562000F394E12CDACF85E0F82EFBCF0F3F100783
:10563000A1F2C3010E9493130817190770F6D4CF83
:10564000F7018491B80120DFEC018FEFE81AF80A26
:10565000CFCFA0E0B0E0EEE2FBE204C2B82EA62E6F
:10566000942E852E6901E8010E9487133C010431C4
:10567000110508F10F3F100711F1C80164E170E056
:10568000D9D1F62EE72E6F2D7E2D8B2DA7DE8C0126
:10569000892BC1F0CF3FDC07B1F3C3010E94931304
:1056A000C817D90780F784E98093BC00C801CDB73B
:1056B000DEB7EEE0F3C1FF24F394E12CE4CF85E004
:1056C000F82EFBCFBE018A2DDFDE8C01E92CF82CF1
:1056D000CE0CDF1CEC14FD0431F30115110519F794
:1056E000BE01F70181917F01CFDE8C01F3CF8EE106
:1056F0004A9B02C08150E1F74A9BFECF08955A9819
:1057000080E28A95F1F75A9A0895FC018BE08A9518
:10571000F1F728E080E090E031E040E14A95F1F7D0
:10572000880F4A9B02C08160932742E04A95F1F7B7
:10573000000040E14A95F1F7215079F720E12A95E0
:10574000F1F729B132E03A95F1F7000030E13A95EE
:10575000F1F731E022FD93272081920F9083089585
:10576000A1E0B0E0E5EBFBE285C119828C017C0190
:10577000E60EF11CBCDFCE010196C7DFF801819374
:105780008F01EE15FF05B1F781E09981911180E05D
:105790002196E6E08BC1529A5A9A089552985A9AE5
:1057A000EA9AE9E6F0E080818F7C80830895615079
:1057B000770B91E001C0990F6A95EAF7692F90E0A5
:1057C00021E0611108C0911591F05A9A80E28A9502
:1057D000F1F75A980895362F382339F05A9A9227BC
:1057E00030E23A95F1F76695ECCF5A98F9CF5A988E
:1057F000EDCFFF920F931F93CF93DF93EC018C01BA
:10580000060F111D8991F82E7ADF68E08F2DCFDF0A
:10581000C017D107B9F7CDB7DEB7E5E048C11F9291
:105820000F920FB60F9211240F931F932F933F9354
:105830004F935F936F937F938F939F93AF93BF9398
:10584000EF93FF93CF93DF930F92CDB7DEB719821B
:105850004EDFCE01019659DF082F06950695069575
:10586000282F22952570902F9570920F292F237045
:1058700096959695920F982797708981892B09F0B4
:1058800055C0083008F052C080E18A95F1F75A9A65
:10589000529A82E08A95F1F700C05A9888E0089FF2
:1058A00080011124D801AA5EBE4F1696ED91FD919C
:1058B0001897309791F06091790170917A01149660
:1058C0002D913D91260F371F15978D919D91680F52
:1058D000791F4C9113978C910995F801EA5EFE4F60
:1058E0006381611549F02091790130917A018481B9
:1058F0009581820F931F7DDF02DF80E18A95F1F7AA
:105900005A9852985A9A80E18A95F1F7F801EA5E1E
:10591000FE4F6081611549F02091790130917A0143
:1059200081819281820F931F1BDFE1DE0F90DF9157
:10593000CF91FF91EF91BF91AF919F918F917F9107
:105940006F915F914F913F912F911F910F910F9008
:105950000FBE0F901F9018950F931F93CF93DF9357
:10596000EC0108970CF05EC0F894529A5A9885E0C2
:105970008A95F1F700009C2F969595708C2F857075
:10598000980F892F837096959695292F93E0CC0FC9
:10599000DD1F9A95E1F7280F822F8C2B082FAFDEA1
:1059A00000C068E0802F03DF80E18A95F1F752980C
:1059B0005A9A4A9B30C087E090E04A992EC0FE0177
:1059C000EA5EFE4F6381611559F0209179013091B3
:1059D0007A0184819581820F931FC2DE8115F9F0CF
:1059E00086DE80E28A95F1F75A98529A80E18A958C
:1059F000F1F7CA5EDE4F6881611549F020917901A7
:105A000030917A0189819A81820F931FF2DE77DECD
:105A1000789481E008C000C0CCCF019749F4529A35
:105A20005A9A789480E0DF91CF911F910F91089559
:105A300000C0C3CFAA1BBB1B51E107C0AA1FBB1FDD
:105A4000A617B70710F0A61BB70B881F991F5A950A
:105A5000A9F780959095BC01CD0108952F923F92B2
:105A60004F925F926F927F928F929F92AF92BF926E
:105A7000CF92DF92EF92FF920F931F93CF93DF931A
:105A8000CDB7DEB7CA1BDB0B0FB6F894DEBF0FBE77
:105A9000CDBF09942A88398848885F846E847D84C4
:105AA0008C849B84AA84B984C884DF80EE80FD80C6
:105AB0000C811B81AA81B981CE0FD11D0FB6F8943C
:105AC000DEBF0FBECDBFED010895992778E0880FA6
:105AD000991F961708F0961B881F7A95C9F780952D
